{
  "_format": "hh-sol-artifact-1",
  "contractName": "ProvenanceTracker",
  "sourceName": "contracts/ProvenanceTracker.sol",
  "abi": [
    {
      "inputs": [],
      "stateMutability": "nonpayable",
      "type": "constructor"
    },
    {
      "anonymous": false,
      "inputs": [
        {
          "indexed": true,
          "internalType": "bytes32",
          "name": "batchId",
          "type": "bytes32"
        },
        {
          "indexed": true,
          "internalType": "address",
          "name": "admin",
          "type": "address"
        }
      ],
      "name": "BatchApproved",
      "type": "event"
    },
    {
      "anonymous": false,
      "inputs": [
        {
          "indexed": true,
          "internalType": "bytes32",
          "name": "batchId",
          "type": "bytes32"
        },
        {
          "indexed": true,
          "internalType": "address",
          "name": "producer",
          "type": "address"
        },
        {
          "indexed": false,
          "internalType": "enum ProvenanceTracker.IndustryType",
          "name": "industryType",
          "type": "uint8"
        }
      ],
      "name": "BatchCreated",
      "type": "event"
    },
    {
      "anonymous": false,
      "inputs": [
        {
          "indexed": true,
          "internalType": "bytes32",
          "name": "batchId",
          "type": "bytes32"
        },
        {
          "indexed": true,
          "internalType": "address",
          "name": "transport",
          "type": "address"
        }
      ],
      "name": "BatchDelivered",
      "type": "event"
    },
    {
      "anonymous": false,
      "inputs": [
        {
          "indexed": true,
          "internalType": "bytes32",
          "name": "batchId",
          "type": "bytes32"
        },
        {
          "indexed": true,
          "internalType": "address",
          "name": "warehouse",
          "type": "address"
        }
      ],
      "name": "BatchStored",
      "type": "event"
    },
    {
      "anonymous": false,
      "inputs": [
        {
          "indexed": true,
          "internalType": "bytes32",
          "name": "batchId",
          "type": "bytes32"
        },
        {
          "indexed": true,
          "internalType": "address",
          "name": "transport",
          "type": "address"
        }
      ],
      "name": "BatchTransported",
      "type": "event"
    },
    {
      "anonymous": false,
      "inputs": [
        {
          "indexed": true,
          "internalType": "bytes32",
          "name": "batchId",
          "type": "bytes32"
        },
        {
          "indexed": true,
          "internalType": "address",
          "name": "middleman",
          "type": "address"
        }
      ],
      "name": "CustodyAccepted",
      "type": "event"
    },
    {
      "anonymous": false,
      "inputs": [
        {
          "indexed": true,
          "internalType": "bytes32",
          "name": "batchId",
          "type": "bytes32"
        },
        {
          "indexed": true,
          "internalType": "address",
          "name": "lab",
          "type": "address"
        },
        {
          "indexed": false,
          "internalType": "string",
          "name": "resultHash",
          "type": "string"
        }
      ],
      "name": "LabResultUploaded",
      "type": "event"
    },
    {
      "anonymous": false,
      "inputs": [
        {
          "indexed": true,
          "internalType": "address",
          "name": "wallet",
          "type": "address"
        },
        {
          "indexed": false,
          "internalType": "enum ProvenanceTracker.Role",
          "name": "role",
          "type": "uint8"
        },
        {
          "indexed": false,
          "internalType": "string",
          "name": "name",
          "type": "string"
        }
      ],
      "name": "UserRegistered",
      "type": "event"
    },
    {
      "inputs": [
        {
          "internalType": "bytes32",
          "name": "_batchId",
          "type": "bytes32"
        },
        {
          "internalType": "string",
          "name": "_metadataHash",
          "type": "string"
        },
        {
          "internalType": "string",
          "name": "_photoHash",
          "type": "string"
        }
      ],
      "name": "acceptCustody",
      "outputs": [],
      "stateMutability": "nonpayable",
      "type": "function"
    },
    {
      "inputs": [
        {
          "internalType": "bytes32",
          "name": "_batchId",
          "type": "bytes32"
        },
        {
          "internalType": "string",
          "name": "_metadataHash",
          "type": "string"
        }
      ],
      "name": "adminApprove",
      "outputs": [],
      "stateMutability": "nonpayable",
      "type": "function"
    },
    {
      "inputs": [
        {
          "internalType": "uint256",
          "name": "",
          "type": "uint256"
        }
      ],
      "name": "allBatchIds",
      "outputs": [
        {
          "internalType": "bytes32",
          "name": "",
          "type": "bytes32"
        }
      ],
      "stateMutability": "view",
      "type": "function"
    },
    {
      "inputs": [
        {
          "internalType": "bytes32",
          "name": "",
          "type": "bytes32"
        },
        {
          "internalType": "uint256",
          "name": "",
          "type": "uint256"
        }
      ],
      "name": "batchHistory",
      "outputs": [
        {
          "internalType": "bytes32",
          "name": "batchId",
          "type": "bytes32"
        },
        {
          "internalType": "enum ProvenanceTracker.Role",
          "name": "role",
          "type": "uint8"
        },
        {
          "internalType": "address",
          "name": "actor",
          "type": "address"
        },
        {
          "internalType": "string",
          "name": "metadataHash",
          "type": "string"
        },
        {
          "internalType": "string",
          "name": "photoHash",
          "type": "string"
        },
        {
          "internalType": "string",
          "name": "action",
          "type": "string"
        },
        {
          "internalType": "uint256",
          "name": "timestamp",
          "type": "uint256"
        }
      ],
      "stateMutability": "view",
      "type": "function"
    },
    {
      "inputs": [
        {
          "internalType": "bytes32",
          "name": "",
          "type": "bytes32"
        }
      ],
      "name": "batches",
      "outputs": [
        {
          "internalType": "bytes32",
          "name": "batchId",
          "type": "bytes32"
        },
        {
          "internalType": "enum ProvenanceTracker.IndustryType",
          "name": "industryType",
          "type": "uint8"
        },
        {
          "internalType": "address",
          "name": "currentOwner",
          "type": "address"
        },
        {
          "internalType": "string",
          "name": "metadataHash",
          "type": "string"
        },
        {
          "internalType": "string",
          "name": "photoHash",
          "type": "string"
        },
        {
          "internalType": "uint256",
          "name": "createdAt",
          "type": "uint256"
        },
        {
          "internalType": "enum ProvenanceTracker.BatchStatus",
          "name": "status",
          "type": "uint8"
        },
        {
          "internalType": "bool",
          "name": "exists",
          "type": "bool"
        }
      ],
      "stateMutability": "view",
      "type": "function"
    },
    {
      "inputs": [
        {
          "internalType": "enum ProvenanceTracker.IndustryType",
          "name": "_industryType",
          "type": "uint8"
        },
        {
          "internalType": "string",
          "name": "_metadataHash",
          "type": "string"
        },
        {
          "internalType": "string",
          "name": "_photoHash",
          "type": "string"
        }
      ],
      "name": "createBatch",
      "outputs": [
        {
          "internalType": "bytes32",
          "name": "",
          "type": "bytes32"
        }
      ],
      "stateMutability": "nonpayable",
      "type": "function"
    },
    {
      "inputs": [
        {
          "internalType": "bytes32",
          "name": "_batchId",
          "type": "bytes32"
        },
        {
          "internalType": "string",
          "name": "_metadataHash",
          "type": "string"
        },
        {
          "internalType": "string",
          "name": "_photoHash",
          "type": "string"
        }
      ],
      "name": "deliverBatch",
      "outputs": [],
      "stateMutability": "nonpayable",
      "type": "function"
    },
    {
      "inputs": [],
      "name": "getAllBatchIds",
      "outputs": [
        {
          "internalType": "bytes32[]",
          "name": "",
          "type": "bytes32[]"
        }
      ],
      "stateMutability": "view",
      "type": "function"
    },
    {
      "inputs": [
        {
          "internalType": "bytes32",
          "name": "_batchId",
          "type": "bytes32"
        }
      ],
      "name": "getBatch",
      "outputs": [
        {
          "components": [
            {
              "internalType": "bytes32",
              "name": "batchId",
              "type": "bytes32"
            },
            {
              "internalType": "enum ProvenanceTracker.IndustryType",
              "name": "industryType",
              "type": "uint8"
            },
            {
              "internalType": "address",
              "name": "currentOwner",
              "type": "address"
            },
            {
              "internalType": "string",
              "name": "metadataHash",
              "type": "string"
            },
            {
              "internalType": "string",
              "name": "photoHash",
              "type": "string"
            },
            {
              "internalType": "uint256",
              "name": "createdAt",
              "type": "uint256"
            },
            {
              "internalType": "enum ProvenanceTracker.BatchStatus",
              "name": "status",
              "type": "uint8"
            },
            {
              "internalType": "bool",
              "name": "exists",
              "type": "bool"
            }
          ],
          "internalType": "struct ProvenanceTracker.Batch",
          "name": "",
          "type": "tuple"
        }
      ],
      "stateMutability": "view",
      "type": "function"
    },
    {
      "inputs": [
        {
          "internalType": "bytes32",
          "name": "_batchId",
          "type": "bytes32"
        }
      ],
      "name": "getBatchHistory",
      "outputs": [
        {
          "components": [
            {
              "internalType": "bytes32",
              "name": "batchId",
              "type": "bytes32"
            },
            {
              "internalType": "enum ProvenanceTracker.Role",
              "name": "role",
              "type": "uint8"
            },
            {
              "internalType": "address",
              "name": "actor",
              "type": "address"
            },
            {
              "internalType": "string",
              "name": "metadataHash",
              "type": "string"
            },
            {
              "internalType": "string",
              "name": "photoHash",
              "type": "string"
            },
            {
              "internalType": "string",
              "name": "action",
              "type": "string"
            },
            {
              "internalType": "uint256",
              "name": "timestamp",
              "type": "uint256"
            }
          ],
          "internalType": "struct ProvenanceTracker.EventLog[]",
          "name": "",
          "type": "tuple[]"
        }
      ],
      "stateMutability": "view",
      "type": "function"
    },
    {
      "inputs": [
        {
          "internalType": "address",
          "name": "_wallet",
          "type": "address"
        }
      ],
      "name": "getUser",
      "outputs": [
        {
          "components": [
            {
              "internalType": "address",
              "name": "wallet",
              "type": "address"
            },
            {
              "internalType": "enum ProvenanceTracker.Role",
              "name": "role",
              "type": "uint8"
            },
            {
              "internalType": "string",
              "name": "name",
              "type": "string"
            },
            {
              "internalType": "bool",
              "name": "isRegistered",
              "type": "bool"
            },
            {
              "internalType": "uint256",
              "name": "registeredAt",
              "type": "uint256"
            }
          ],
          "internalType": "struct ProvenanceTracker.User",
          "name": "",
          "type": "tuple"
        }
      ],
      "stateMutability": "view",
      "type": "function"
    },
    {
      "inputs": [],
      "name": "owner",
      "outputs": [
        {
          "internalType": "address",
          "name": "",
          "type": "address"
        }
      ],
      "stateMutability": "view",
      "type": "function"
    },
    {
      "inputs": [
        {
          "internalType": "enum ProvenanceTracker.Role",
          "name": "_role",
          "type": "uint8"
        },
        {
          "internalType": "string",
          "name": "_name",
          "type": "string"
        }
      ],
      "name": "registerUser",
      "outputs": [],
      "stateMutability": "nonpayable",
      "type": "function"
    },
    {
      "inputs": [
        {
          "internalType": "bytes32",
          "name": "_batchId",
          "type": "bytes32"
        },
        {
          "internalType": "string",
          "name": "_metadataHash",
          "type": "string"
        },
        {
          "internalType": "string",
          "name": "_photoHash",
          "type": "string"
        }
      ],
      "name": "storeWarehouse",
      "outputs": [],
      "stateMutability": "nonpayable",
      "type": "function"
    },
    {
      "inputs": [
        {
          "internalType": "bytes32",
          "name": "_batchId",
          "type": "bytes32"
        },
        {
          "internalType": "string",
          "name": "_metadataHash",
          "type": "string"
        },
        {
          "internalType": "string",
          "name": "_photoHash",
          "type": "string"
        }
      ],
      "name": "transportBatch",
      "outputs": [],
      "stateMutability": "nonpayable",
      "type": "function"
    },
    {
      "inputs": [
        {
          "internalType": "bytes32",
          "name": "_batchId",
          "type": "bytes32"
        },
        {
          "internalType": "string",
          "name": "_resultHash",
          "type": "string"
        },
        {
          "internalType": "string",
          "name": "_photoHash",
          "type": "string"
        }
      ],
      "name": "uploadLabResult",
      "outputs": [],
      "stateMutability": "nonpayable",
      "type": "function"
    },
    {
      "inputs": [
        {
          "internalType": "address",
          "name": "",
          "type": "address"
        }
      ],
      "name": "users",
      "outputs": [
        {
          "internalType": "address",
          "name": "wallet",
          "type": "address"
        },
        {
          "internalType": "enum ProvenanceTracker.Role",
          "name": "role",
          "type": "uint8"
        },
        {
          "internalType": "string",
          "name": "name",
          "type": "string"
        },
        {
          "internalType": "bool",
          "name": "isRegistered",
          "type": "bool"
        },
        {
          "internalType": "uint256",
          "name": "registeredAt",
          "type": "uint256"
        }
      ],
      "stateMutability": "view",
      "type": "function"
    },
    {
      "inputs": [
        {
          "internalType": "bytes32",
          "name": "_batchId",
          "type": "bytes32"
        }
      ],
      "name": "verifyBatch",
      "outputs": [
        {
          "internalType": "bool",
          "name": "exists",
          "type": "bool"
        },
        {
          "internalType": "enum ProvenanceTracker.BatchStatus",
          "name": "status",
          "type": "uint8"
        },
        {
          "internalType": "address",
          "name": "currentOwner",
          "type": "address"
        },
        {
          "internalType": "uint256",
          "name": "eventCount",
          "type": "uint256"
        }
      ],
      "stateMutability": "view",
      "type": "function"
    }
  ],
  "bytecode": "0x60806040523480156200001157600080fd5b50336000806101000a81548173ffffffffffffffffffffffffffffffffffffffff021916908373ffffffffffffffffffffffffffffffffffffffff1602179055506040518060a001604052803373ffffffffffffffffffffffffffffffffffffffff1681526020016004600581111562000090576200008f620001e1565b5b81526020016040518060400160405280600e81526020017f506c6174666f726d2041646d696e000000000000000000000000000000000000815250815260200160011515815260200142815250600160003373ffffffffffffffffffffffffffffffffffffffff1673ffffffffffffffffffffffffffffffffffffffff16815260200190815260200160002060008201518160000160006101000a81548173ffffffffffffffffffffffffffffffffffffffff021916908373ffffffffffffffffffffffffffffffffffffffff16021790555060208201518160000160146101000a81548160ff02191690836005811115620001915762000190620001e1565b5b02179055506040820151816001019081620001ad91906200048a565b5060608201518160020160006101000a81548160ff0219169083151502179055506080820151816003015590505062000571565b7f4e487b7100000000000000000000000000000000000000000000000000000000600052602160045260246000fd5b600081519050919050565b7f4e487b7100000000000000000000000000000000000000000000000000000000600052604160045260246000fd5b7f4e487b7100000000000000000000000000000000000000000000000000000000600052602260045260246000fd5b600060028204905060018216806200029257607f821691505b602082108103620002a857620002a76200024a565b5b50919050565b60008190508160005260206000209050919050565b60006020601f8301049050919050565b600082821b905092915050565b600060088302620003127fffffffffffffffffffffffffffffffffffffffffffffffffffffffffffffffff82620002d3565b6200031e8683620002d3565b95508019841693508086168417925050509392505050565b6000819050919050565b6000819050919050565b60006200036b620003656200035f8462000336565b62000340565b62000336565b9050919050565b6000819050919050565b62000387836200034a565b6200039f620003968262000372565b848454620002e0565b825550505050565b600090565b620003b6620003a7565b620003c38184846200037c565b505050565b5b81811015620003eb57620003df600082620003ac565b600181019050620003c9565b5050565b601f8211156200043a576200040481620002ae565b6200040f84620002c3565b810160208510156200041f578190505b620004376200042e85620002c3565b830182620003c8565b50505b505050565b600082821c905092915050565b60006200045f600019846008026200043f565b1980831691505092915050565b60006200047a83836200044c565b9150826002028217905092915050565b620004958262000210565b67ffffffffffffffff811115620004b157620004b06200021b565b5b620004bd825462000279565b620004ca828285620003ef565b600060209050601f831160018114620005025760008415620004ed578287015190505b620004f985826200046c565b86555062000569565b601f1984166200051286620002ae565b60005b828110156200053c5784890151825560018201915060208501945060208101905062000515565b868310156200055c578489015162000558601f8916826200044c565b8355505b6001600288020188555050505b505050505050565b6149ab80620005816000396000f3fe608060405234801561001057600080fd5b50600436106101165760003560e01c80638da5cb5b116100a2578063d29bcc5c11610071578063d29bcc5c14610314578063df05afd614610330578063e0c9fdcb1461034c578063ed42136f1461037f578063fe73f246146103af57610116565b80638da5cb5b1461026d578063a87430ba1461028b578063bce06947146102bf578063c81e25ab146102dd57610116565b806342bc06b4116100e957806342bc06b4146101cd578063601969ca146101e95780636a53b6a4146102055780636f77926b1461022157806382aceaed1461025157610116565b806323c535c91461011b578063290b17ec1461013757806330527dc114610167578063403cbbe51461019d575b600080fd5b61013560048036038101906101309190613349565b6103df565b005b610151600480360381019061014c9190613414565b6107b4565b60405161015e9190613450565b60405180910390f35b610181600480360381019061017c919061346b565b6107d8565b6040516101949796959493929190613602565b60405180910390f35b6101b760048036038101906101b291906136ab565b6109fc565b6040516101c49190613450565b60405180910390f35b6101e760048036038101906101e29190613740565b610efa565b005b61020360048036038101906101fe9190613349565b611299565b005b61021f600480360381019061021a9190613349565b61166f565b005b61023b600480360381019061023691906137cc565b611a52565b6040516102489190613901565b60405180910390f35b61026b60048036038101906102669190613349565b611bf3565b005b610275612018565b6040516102829190613923565b60405180910390f35b6102a560048036038101906102a091906137cc565b61203c565b6040516102b695949392919061394d565b60405180910390f35b6102c7612134565b6040516102d49190613a65565b60405180910390f35b6102f760048036038101906102f29190613a87565b61218c565b60405161030b989796959493929190613b44565b60405180910390f35b61032e60048036038101906103299190613bf5565b61232b565b005b61034a60048036038101906103459190613349565b6125e7565b005b61036660048036038101906103619190613a87565b6129bd565b6040516103769493929190613c55565b60405180910390f35b61039960048036038101906103949190613a87565b612a76565b6040516103a69190613d6f565b60405180910390f35b6103c960048036038101906103c49190613a87565b612d28565b6040516103d69190613efd565b60405180910390f35b60018060003373ffffffffffffffffffffffffffffffffffffffff1673ffffffffffffffffffffffffffffffffffffffff16815260200190815260200160002060020160009054906101000a900460ff1661046f576040517f08c379a000000000000000000000000000000000000000000000000000000000815260040161046690613f6b565b60405180910390fd5b806005811115610482576104816134ab565b5b600160003373ffffffffffffffffffffffffffffffffffffffff1673ffffffffffffffffffffffffffffffffffffffff16815260200190815260200160002060000160149054906101000a900460ff1660058111156104e4576104e36134ab565b5b14610524576040517f08c379a000000000000000000000000000000000000000000000000000000000815260040161051b90613fd7565b60405180910390fd5b856002600082815260200190815260200160002060050160019054906101000a900460ff16610588576040517f08c379a000000000000000000000000000000000000000000000000000000000815260040161057f90614043565b60405180910390fd5b6000600260008981526020019081526020016000209050600060058111156105b3576105b26134ab565b5b8160050160009054906101000a900460ff1660058111156105d7576105d66134ab565b5b14610617576040517f08c379a000000000000000000000000000000000000000000000000000000000815260040161060e906140af565b60405180910390fd5b338160010160016101000a81548173ffffffffffffffffffffffffffffffffffffffff021916908373ffffffffffffffffffffffffffffffffffffffff16021790555060018160050160006101000a81548160ff02191690836005811115610682576106816134ab565b5b0217905550868682600201918261069a929190614315565b5061076688600189898080601f016020809104026020016040519081016040528093929190818152602001838380828437600081840152601f19601f8201169050808301925050505050505088888080601f016020809104026020016040519081016040528093929190818152602001838380828437600081840152601f19601f820116905080830192505050505050506040518060400160405280601081526020017f435553544f44595f41434345505445440000000000000000000000000000000081525061305a565b3373ffffffffffffffffffffffffffffffffffffffff16887fd1273931f91ef576071a0e4eb04999f91eea49facd8f3a8e6afb20d7043f150d60405160405180910390a35050505050505050565b600481815481106107c457600080fd5b906000526020600020016000915090505481565b600360205281600052604060002081815481106107f457600080fd5b9060005260206000209060060201600091509150508060000154908060010160009054906101000a900460ff16908060010160019054906101000a900473ffffffffffffffffffffffffffffffffffffffff169080600201805461085790614138565b80601f016020809104026020016040519081016040528092919081815260200182805461088390614138565b80156108d05780601f106108a5576101008083540402835291602001916108d0565b820191906000526020600020905b8154815290600101906020018083116108b357829003601f168201915b5050505050908060030180546108e590614138565b80601f016020809104026020016040519081016040528092919081815260200182805461091190614138565b801561095e5780601f106109335761010080835404028352916020019161095e565b820191906000526020600020905b81548152906001019060200180831161094157829003601f168201915b50505050509080600401805461097390614138565b80601f016020809104026020016040519081016040528092919081815260200182805461099f90614138565b80156109ec5780601f106109c1576101008083540402835291602001916109ec565b820191906000526020600020905b8154815290600101906020018083116109cf57829003601f168201915b5050505050908060050154905087565b600080600160003373ffffffffffffffffffffffffffffffffffffffff1673ffffffffffffffffffffffffffffffffffffffff16815260200190815260200160002060020160009054906101000a900460ff16610a8e576040517f08c379a0000000000000000000000000000000000000000000000000000000008152600401610a8590613f6b565b60405180910390fd5b806005811115610aa157610aa06134ab565b5b600160003373ffffffffffffffffffffffffffffffffffffffff1673ffffffffffffffffffffffffffffffffffffffff16815260200190815260200160002060000160149054906101000a900460ff166005811115610b0357610b026134ab565b5b14610b43576040517f08c379a0000000000000000000000000000000000000000000000000000000008152600401610b3a90613fd7565b60405180910390fd5b60056000815480929190610b5690614414565b919050555060003342600554604051602001610b74939291906144c5565b604051602081830303815290604052805190602001209050604051806101000160405280828152602001896001811115610bb157610bb06134ab565b5b81526020013373ffffffffffffffffffffffffffffffffffffffff16815260200188888080601f016020809104026020016040519081016040528093929190818152602001838380828437600081840152601f19601f82011690508083019250505050505050815260200186868080601f016020809104026020016040519081016040528093929190818152602001838380828437600081840152601f19601f82011690508083019250505050505050815260200142815260200160006005811115610c8057610c7f6134ab565b5b815260200160011515815250600260008381526020019081526020016000206000820151816000015560208201518160010160006101000a81548160ff02191690836001811115610cd457610cd36134ab565b5b021790555060408201518160010160016101000a81548173ffffffffffffffffffffffffffffffffffffffff021916908373ffffffffffffffffffffffffffffffffffffffff1602179055506060820151816002019081610d359190614502565b506080820151816003019081610d4b9190614502565b5060a0820151816004015560c08201518160050160006101000a81548160ff02191690836005811115610d8157610d806134ab565b5b021790555060e08201518160050160016101000a81548160ff0219169083151502179055509050506004819080600181540180825580915050600190039060005260206000200160009091909190915055610e9d81600089898080601f016020809104026020016040519081016040528093929190818152602001838380828437600081840152601f19601f8201169050808301925050505050505088888080601f016020809104026020016040519081016040528093929190818152602001838380828437600081840152601f19601f820116905080830192505050505050506040518060400160405280600d81526020017f42415443485f435245415445440000000000000000000000000000000000000081525061305a565b3373ffffffffffffffffffffffffffffffffffffffff16817fad83c1d04cfeb9e06f62fbf1ce7db9d60614078cfb80c6557ba9076e1e9b10ab8a604051610ee491906145d4565b60405180910390a3809250505095945050505050565b6004600160003373ffffffffffffffffffffffffffffffffffffffff1673ffffffffffffffffffffffffffffffffffffffff16815260200190815260200160002060020160009054906101000a900460ff16610f8b576040517f08c379a0000000000000000000000000000000000000000000000000000000008152600401610f8290613f6b565b60405180910390fd5b806005811115610f9e57610f9d6134ab565b5b600160003373ffffffffffffffffffffffffffffffffffffffff1673ffffffffffffffffffffffffffffffffffffffff16815260200190815260200160002060000160149054906101000a900460ff16600581111561100057610fff6134ab565b5b14611040576040517f08c379a000000000000000000000000000000000000000000000000000000000815260040161103790613fd7565b60405180910390fd5b836002600082815260200190815260200160002060050160019054906101000a900460ff166110a4576040517f08c379a000000000000000000000000000000000000000000000000000000000815260040161109b90614043565b60405180910390fd5b6000600260008781526020019081526020016000209050600360058111156110cf576110ce6134ab565b5b8160050160009054906101000a900460ff1660058111156110f3576110f26134ab565b5b14611133576040517f08c379a000000000000000000000000000000000000000000000000000000000815260040161112a9061463b565b60405180910390fd5b338160010160016101000a81548173ffffffffffffffffffffffffffffffffffffffff021916908373ffffffffffffffffffffffffffffffffffffffff16021790555060048160050160006101000a81548160ff0219169083600581111561119e5761119d6134ab565b5b021790555084848260020191826111b6929190614315565b5061124d86600487878080601f016020809104026020016040519081016040528093929190818152602001838380828437600081840152601f19601f82011690508083019250505050505050604051806020016040528060008152506040518060400160405280600e81526020017f41444d494e5f415050524f56454400000000000000000000000000000000000081525061305a565b3373ffffffffffffffffffffffffffffffffffffffff16867fc1611308cfa3fc232c31632351a321e6f8ca79418f062ce07bb645f33d85978e60405160405180910390a3505050505050565b6002600160003373ffffffffffffffffffffffffffffffffffffffff1673ffffffffffffffffffffffffffffffffffffffff16815260200190815260200160002060020160009054906101000a900460ff1661132a576040517f08c379a000000000000000000000000000000000000000000000000000000000815260040161132190613f6b565b60405180910390fd5b80600581111561133d5761133c6134ab565b5b600160003373ffffffffffffffffffffffffffffffffffffffff1673ffffffffffffffffffffffffffffffffffffffff16815260200190815260200160002060000160149054906101000a900460ff16600581111561139f5761139e6134ab565b5b146113df576040517f08c379a00000000000000000000000000000000000000000000000000000000081526004016113d690613fd7565b60405180910390fd5b856002600082815260200190815260200160002060050160019054906101000a900460ff16611443576040517f08c379a000000000000000000000000000000000000000000000000000000000815260040161143a90614043565b60405180910390fd5b60006002600089815260200190815260200160002090506001600581111561146e5761146d6134ab565b5b8160050160009054906101000a900460ff166005811115611492576114916134ab565b5b146114d2576040517f08c379a00000000000000000000000000000000000000000000000000000000081526004016114c9906146a7565b60405180910390fd5b338160010160016101000a81548173ffffffffffffffffffffffffffffffffffffffff021916908373ffffffffffffffffffffffffffffffffffffffff16021790555060028160050160006101000a81548160ff0219169083600581111561153d5761153c6134ab565b5b02179055508686826002019182611555929190614315565b5061162188600289898080601f016020809104026020016040519081016040528093929190818152602001838380828437600081840152601f19601f8201169050808301925050505050505088888080601f016020809104026020016040519081016040528093929190818152602001838380828437600081840152601f19601f820116905080830192505050505050506040518060400160405280601381526020017f53544f5245445f494e5f57415245484f5553450000000000000000000000000081525061305a565b3373ffffffffffffffffffffffffffffffffffffffff16887f9d9f7fa58c834cdc4e251eb3118f408e3dd0bbba48309c3a594f8ee29857ce3260405160405180910390a35050505050505050565b6003600160003373ffffffffffffffffffffffffffffffffffffffff1673ffffffffffffffffffffffffffffffffffffffff16815260200190815260200160002060020160009054906101000a900460ff16611700576040517f08c379a00000000000000000000000000000000000000000000000000000000081526004016116f790613f6b565b60405180910390fd5b806005811115611713576117126134ab565b5b600160003373ffffffffffffffffffffffffffffffffffffffff1673ffffffffffffffffffffffffffffffffffffffff16815260200190815260200160002060000160149054906101000a900460ff166005811115611775576117746134ab565b5b146117b5576040517f08c379a00000000000000000000000000000000000000000000000000000000081526004016117ac90613fd7565b60405180910390fd5b856002600082815260200190815260200160002060050160019054906101000a900460ff16611819576040517f08c379a000000000000000000000000000000000000000000000000000000000815260040161181090614043565b60405180910390fd5b600060026000898152602001908152602001600020905060026005811115611844576118436134ab565b5b8160050160009054906101000a900460ff166005811115611868576118676134ab565b5b146118a8576040517f08c379a000000000000000000000000000000000000000000000000000000000815260040161189f90614713565b60405180910390fd5b338160010160016101000a81548173ffffffffffffffffffffffffffffffffffffffff021916908373ffffffffffffffffffffffffffffffffffffffff16021790555060038160050160006101000a81548160ff02191690836005811115611913576119126134ab565b5b0217905550868682600201918261192b929190614315565b506119f788600389898080601f016020809104026020016040519081016040528093929190818152602001838380828437600081840152601f19601f8201169050808301925050505050505088888080601f016020809104026020016040519081016040528093929190818152602001838380828437600081840152601f19601f820116905080830192505050505050506040518060400160405280601381526020017f4c41425f524553554c545f55504c4f414445440000000000000000000000000081525061305a565b3373ffffffffffffffffffffffffffffffffffffffff16887f414c26f6aed0416504d3163a00f23a1056e986802fa39f7731de0e4f776c3c058989604051611a4092919061476f565b60405180910390a35050505050505050565b611a5a6131c7565b600160008373ffffffffffffffffffffffffffffffffffffffff1673ffffffffffffffffffffffffffffffffffffffff1681526020019081526020016000206040518060a00160405290816000820160009054906101000a900473ffffffffffffffffffffffffffffffffffffffff1673ffffffffffffffffffffffffffffffffffffffff1673ffffffffffffffffffffffffffffffffffffffff1681526020016000820160149054906101000a900460ff166005811115611b1f57611b1e6134ab565b5b6005811115611b3157611b306134ab565b5b8152602001600182018054611b4590614138565b80601f0160208091040260200160405190810160405280929190818152602001828054611b7190614138565b8015611bbe5780601f10611b9357610100808354040283529160200191611bbe565b820191906000526020600020905b815481529060010190602001808311611ba157829003601f168201915b505050505081526020016002820160009054906101000a900460ff161515151581526020016003820154815250509050919050565b6005600160003373ffffffffffffffffffffffffffffffffffffffff1673ffffffffffffffffffffffffffffffffffffffff16815260200190815260200160002060020160009054906101000a900460ff16611c84576040517f08c379a0000000000000000000000000000000000000000000000000000000008152600401611c7b90613f6b565b60405180910390fd5b806005811115611c9757611c966134ab565b5b600160003373ffffffffffffffffffffffffffffffffffffffff1673ffffffffffffffffffffffffffffffffffffffff16815260200190815260200160002060000160149054906101000a900460ff166005811115611cf957611cf86134ab565b5b14611d39576040517f08c379a0000000000000000000000000000000000000000000000000000000008152600401611d3090613fd7565b60405180910390fd5b856002600082815260200190815260200160002060050160019054906101000a900460ff16611d9d576040517f08c379a0000000000000000000000000000000000000000000000000000000008152600401611d9490614043565b60405180910390fd5b600060026000898152602001908152602001600020905060016005811115611dc857611dc76134ab565b5b8160050160009054906101000a900460ff166005811115611dec57611deb6134ab565b5b14611e2c576040517f08c379a0000000000000000000000000000000000000000000000000000000008152600401611e23906146a7565b60405180910390fd5b3373ffffffffffffffffffffffffffffffffffffffff168160010160019054906101000a900473ffffffffffffffffffffffffffffffffffffffff1673ffffffffffffffffffffffffffffffffffffffff1614611ebe576040517f08c379a0000000000000000000000000000000000000000000000000000000008152600401611eb5906147df565b60405180910390fd5b60058160050160006101000a81548160ff02191690836005811115611ee657611ee56134ab565b5b02179055508686826002019182611efe929190614315565b50611fca88600589898080601f016020809104026020016040519081016040528093929190818152602001838380828437600081840152601f19601f8201169050808301925050505050505088888080601f016020809104026020016040519081016040528093929190818152602001838380828437600081840152601f19601f820116905080830192505050505050506040518060400160405280600981526020017f44454c495645524544000000000000000000000000000000000000000000000081525061305a565b3373ffffffffffffffffffffffffffffffffffffffff16887fd8bf522bd379b573da8aae8620196ea648dbdf4a808a5647d1bb16155c5a3e1760405160405180910390a35050505050505050565b60008054906101000a900473ffffffffffffffffffffffffffffffffffffffff1681565b60016020528060005260406000206000915090508060000160009054906101000a900473ffffffffffffffffffffffffffffffffffffffff16908060000160149054906101000a900460ff169080600101805461209890614138565b80601f01602080910402602001604051908101604052809291908181526020018280546120c490614138565b80156121115780601f106120e657610100808354040283529160200191612111565b820191906000526020600020905b8154815290600101906020018083116120f457829003601f168201915b5050505050908060020160009054906101000a900460ff16908060030154905085565b6060600480548060200260200160405190810160405280929190818152602001828054801561218257602002820191906000526020600020905b81548152602001906001019080831161216e575b5050505050905090565b60026020528060005260406000206000915090508060000154908060010160009054906101000a900460ff16908060010160019054906101000a900473ffffffffffffffffffffffffffffffffffffffff16908060020180546121ee90614138565b80601f016020809104026020016040519081016040528092919081815260200182805461221a90614138565b80156122675780601f1061223c57610100808354040283529160200191612267565b820191906000526020600020905b81548152906001019060200180831161224a57829003601f168201915b50505050509080600301805461227c90614138565b80601f01602080910402602001604051908101604052809291908181526020018280546122a890614138565b80156122f55780601f106122ca576101008083540402835291602001916122f5565b820191906000526020600020905b8154815290600101906020018083116122d857829003601f168201915b5050505050908060040154908060050160009054906101000a900460ff16908060050160019054906101000a900460ff16905088565b600160003373ffffffffffffffffffffffffffffffffffffffff1673ffffffffffffffffffffffffffffffffffffffff16815260200190815260200160002060020160009054906101000a900460ff16156123bb576040517f08c379a00000000000000000000000000000000000000000000000000000000081526004016123b29061484b565b60405180910390fd5b60008282905011612401576040517f08c379a00000000000000000000000000000000000000000000000000000000081526004016123f8906148b7565b60405180910390fd5b6040518060a001604052803373ffffffffffffffffffffffffffffffffffffffff16815260200184600581111561243b5761243a6134ab565b5b815260200183838080601f016020809104026020016040519081016040528093929190818152602001838380828437600081840152601f19601f82011690508083019250505050505050815260200160011515815260200142815250600160003373ffffffffffffffffffffffffffffffffffffffff1673ffffffffffffffffffffffffffffffffffffffff16815260200190815260200160002060008201518160000160006101000a81548173ffffffffffffffffffffffffffffffffffffffff021916908373ffffffffffffffffffffffffffffffffffffffff16021790555060208201518160000160146101000a81548160ff02191690836005811115612548576125476134ab565b5b021790555060408201518160010190816125629190614502565b5060608201518160020160006101000a81548160ff021916908315150217905550608082015181600301559050503373ffffffffffffffffffffffffffffffffffffffff167f04221ffa167b8d0a33647e46ee4f6728f4fe3651e4d56715ed0941b12046147b8484846040516125da939291906148d7565b60405180910390a2505050565b6005600160003373ffffffffffffffffffffffffffffffffffffffff1673ffffffffffffffffffffffffffffffffffffffff16815260200190815260200160002060020160009054906101000a900460ff16612678576040517f08c379a000000000000000000000000000000000000000000000000000000000815260040161266f90613f6b565b60405180910390fd5b80600581111561268b5761268a6134ab565b5b600160003373ffffffffffffffffffffffffffffffffffffffff1673ffffffffffffffffffffffffffffffffffffffff16815260200190815260200160002060000160149054906101000a900460ff1660058111156126ed576126ec6134ab565b5b1461272d576040517f08c379a000000000000000000000000000000000000000000000000000000000815260040161272490613fd7565b60405180910390fd5b856002600082815260200190815260200160002060050160019054906101000a900460ff16612791576040517f08c379a000000000000000000000000000000000000000000000000000000000815260040161278890614043565b60405180910390fd5b6000600260008981526020019081526020016000209050600460058111156127bc576127bb6134ab565b5b8160050160009054906101000a900460ff1660058111156127e0576127df6134ab565b5b14612820576040517f08c379a000000000000000000000000000000000000000000000000000000000815260040161281790614955565b60405180910390fd5b338160010160016101000a81548173ffffffffffffffffffffffffffffffffffffffff021916908373ffffffffffffffffffffffffffffffffffffffff16021790555060018160050160006101000a81548160ff0219169083600581111561288b5761288a6134ab565b5b021790555086868260020191826128a3929190614315565b5061296f88600589898080601f016020809104026020016040519081016040528093929190818152602001838380828437600081840152601f19601f8201169050808301925050505050505088888080601f016020809104026020016040519081016040528093929190818152602001838380828437600081840152601f19601f820116905080830192505050505050506040518060400160405280601181526020017f5452414e53504f52545f5354415254454400000000000000000000000000000081525061305a565b3373ffffffffffffffffffffffffffffffffffffffff16887f74c725a8fc8fb43bf6faa13f1ef16127fdad652347f24c7b8b9bbf031b8fde6a60405160405180910390a35050505050505050565b6000806000806002600086815260200190815260200160002060050160019054906101000a900460ff166129fe576000806000809350935093509350612a6f565b600060026000878152602001908152602001600020905060018160050160009054906101000a900460ff168260010160019054906101000a900473ffffffffffffffffffffffffffffffffffffffff16600360008a8152602001908152602001600020805490509450945094509450505b9193509193565b612a7e613220565b816002600082815260200190815260200160002060050160019054906101000a900460ff16612ae2576040517f08c379a0000000000000000000000000000000000000000000000000000000008152600401612ad990614043565b60405180910390fd5b6002600084815260200190815260200160002060405180610100016040529081600082015481526020016001820160009054906101000a900460ff166001811115612b3057612b2f6134ab565b5b6001811115612b4257612b416134ab565b5b81526020016001820160019054906101000a900473ffffffffffffffffffffffffffffffffffffffff1673ffffffffffffffffffffffffffffffffffffffff1673ffffffffffffffffffffffffffffffffffffffff168152602001600282018054612bac90614138565b80601f0160208091040260200160405190810160405280929190818152602001828054612bd890614138565b8015612c255780601f10612bfa57610100808354040283529160200191612c25565b820191906000526020600020905b815481529060010190602001808311612c0857829003601f168201915b50505050508152602001600382018054612c3e90614138565b80601f0160208091040260200160405190810160405280929190818152602001828054612c6a90614138565b8015612cb75780601f10612c8c57610100808354040283529160200191612cb7565b820191906000526020600020905b815481529060010190602001808311612c9a57829003601f168201915b50505050508152602001600482015481526020016005820160009054906101000a900460ff166005811115612cef57612cee6134ab565b5b6005811115612d0157612d006134ab565b5b81526020016005820160019054906101000a900460ff161515151581525050915050919050565b6060816002600082815260200190815260200160002060050160019054906101000a900460ff16612d8e576040517f08c379a0000000000000000000000000000000000000000000000000000000008152600401612d8590614043565b60405180910390fd5b60036000848152602001908152602001600020805480602002602001604051908101604052809291908181526020016000905b8282101561304e57838290600052602060002090600602016040518060e0016040529081600082015481526020016001820160009054906101000a900460ff166005811115612e1357612e126134ab565b5b6005811115612e2557612e246134ab565b5b81526020016001820160019054906101000a900473ffffffffffffffffffffffffffffffffffffffff1673ffffffffffffffffffffffffffffffffffffffff1673ffffffffffffffffffffffffffffffffffffffff168152602001600282018054612e8f90614138565b80601f0160208091040260200160405190810160405280929190818152602001828054612ebb90614138565b8015612f085780601f10612edd57610100808354040283529160200191612f08565b820191906000526020600020905b815481529060010190602001808311612eeb57829003601f168201915b50505050508152602001600382018054612f2190614138565b80601f0160208091040260200160405190810160405280929190818152602001828054612f4d90614138565b8015612f9a5780601f10612f6f57610100808354040283529160200191612f9a565b820191906000526020600020905b815481529060010190602001808311612f7d57829003601f168201915b50505050508152602001600482018054612fb390614138565b80601f0160208091040260200160405190810160405280929190818152602001828054612fdf90614138565b801561302c5780601f106130015761010080835404028352916020019161302c565b820191906000526020600020905b81548152906001019060200180831161300f57829003601f168201915b5050505050815260200160058201548152505081526020019060010190612dc1565b50505050915050919050565b600360008681526020019081526020016000206040518060e00160405280878152602001866005811115613091576130906134ab565b5b81526020013373ffffffffffffffffffffffffffffffffffffffff1681526020018581526020018481526020018381526020014281525090806001815401808255809150506001900390600052602060002090600602016000909190919091506000820151816000015560208201518160010160006101000a81548160ff02191690836005811115613126576131256134ab565b5b021790555060408201518160010160016101000a81548173ffffffffffffffffffffffffffffffffffffffff021916908373ffffffffffffffffffffffffffffffffffffffff16021790555060608201518160020190816131879190614502565b50608082015181600301908161319d9190614502565b5060a08201518160040190816131b39190614502565b5060c0820151816005015550505050505050565b6040518060a00160405280600073ffffffffffffffffffffffffffffffffffffffff16815260200160006005811115613203576132026134ab565b5b815260200160608152602001600015158152602001600081525090565b604051806101000160405280600080191681526020016000600181111561324a576132496134ab565b5b8152602001600073ffffffffffffffffffffffffffffffffffffffff16815260200160608152602001606081526020016000815260200160006005811115613295576132946134ab565b5b81526020016000151581525090565b600080fd5b600080fd5b6000819050919050565b6132c1816132ae565b81146132cc57600080fd5b50565b6000813590506132de816132b8565b92915050565b600080fd5b600080fd5b600080fd5b60008083601f840112613309576133086132e4565b5b8235905067ffffffffffffffff811115613326576133256132e9565b5b602083019150836001820283011115613342576133416132ee565b5b9250929050565b600080600080600060608688031215613365576133646132a4565b5b6000613373888289016132cf565b955050602086013567ffffffffffffffff811115613394576133936132a9565b5b6133a0888289016132f3565b9450945050604086013567ffffffffffffffff8111156133c3576133c26132a9565b5b6133cf888289016132f3565b92509250509295509295909350565b6000819050919050565b6133f1816133de565b81146133fc57600080fd5b50565b60008135905061340e816133e8565b92915050565b60006020828403121561342a576134296132a4565b5b6000613438848285016133ff565b91505092915050565b61344a816132ae565b82525050565b60006020820190506134656000830184613441565b92915050565b60008060408385031215613482576134816132a4565b5b6000613490858286016132cf565b92505060206134a1858286016133ff565b9150509250929050565b7f4e487b7100000000000000000000000000000000000000000000000000000000600052602160045260246000fd5b600681106134eb576134ea6134ab565b5b50565b60008190506134fc826134da565b919050565b600061350c826134ee565b9050919050565b61351c81613501565b82525050565b600073ffffffffffffffffffffffffffffffffffffffff82169050919050565b600061354d82613522565b9050919050565b61355d81613542565b82525050565b600081519050919050565b600082825260208201905092915050565b60005b8381101561359d578082015181840152602081019050613582565b60008484015250505050565b6000601f19601f8301169050919050565b60006135c582613563565b6135cf818561356e565b93506135df81856020860161357f565b6135e8816135a9565b840191505092915050565b6135fc816133de565b82525050565b600060e082019050613617600083018a613441565b6136246020830189613513565b6136316040830188613554565b818103606083015261364381876135ba565b9050818103608083015261365781866135ba565b905081810360a083015261366b81856135ba565b905061367a60c08301846135f3565b98975050505050505050565b6002811061369357600080fd5b50565b6000813590506136a581613686565b92915050565b6000806000806000606086880312156136c7576136c66132a4565b5b60006136d588828901613696565b955050602086013567ffffffffffffffff8111156136f6576136f56132a9565b5b613702888289016132f3565b9450945050604086013567ffffffffffffffff811115613725576137246132a9565b5b613731888289016132f3565b92509250509295509295909350565b600080600060408486031215613759576137586132a4565b5b6000613767868287016132cf565b935050602084013567ffffffffffffffff811115613788576137876132a9565b5b613794868287016132f3565b92509250509250925092565b6137a981613542565b81146137b457600080fd5b50565b6000813590506137c6816137a0565b92915050565b6000602082840312156137e2576137e16132a4565b5b60006137f0848285016137b7565b91505092915050565b61380281613542565b82525050565b61381181613501565b82525050565b600082825260208201905092915050565b600061383382613563565b61383d8185613817565b935061384d81856020860161357f565b613856816135a9565b840191505092915050565b60008115159050919050565b61387681613861565b82525050565b613885816133de565b82525050565b600060a0830160008301516138a360008601826137f9565b5060208301516138b66020860182613808565b50604083015184820360408601526138ce8282613828565b91505060608301516138e3606086018261386d565b5060808301516138f6608086018261387c565b508091505092915050565b6000602082019050818103600083015261391b818461388b565b905092915050565b60006020820190506139386000830184613554565b92915050565b61394781613861565b82525050565b600060a0820190506139626000830188613554565b61396f6020830187613513565b818103604083015261398181866135ba565b9050613990606083018561393e565b61399d60808301846135f3565b9695505050505050565b600081519050919050565b600082825260208201905092915050565b6000819050602082019050919050565b6139dc816132ae565b82525050565b60006139ee83836139d3565b60208301905092915050565b6000602082019050919050565b6000613a12826139a7565b613a1c81856139b2565b9350613a27836139c3565b8060005b83811015613a58578151613a3f88826139e2565b9750613a4a836139fa565b925050600181019050613a2b565b5085935050505092915050565b60006020820190508181036000830152613a7f8184613a07565b905092915050565b600060208284031215613a9d57613a9c6132a4565b5b6000613aab848285016132cf565b91505092915050565b60028110613ac557613ac46134ab565b5b50565b6000819050613ad682613ab4565b919050565b6000613ae682613ac8565b9050919050565b613af681613adb565b82525050565b60068110613b0d57613b0c6134ab565b5b50565b6000819050613b1e82613afc565b919050565b6000613b2e82613b10565b9050919050565b613b3e81613b23565b82525050565b600061010082019050613b5a600083018b613441565b613b67602083018a613aed565b613b746040830189613554565b8181036060830152613b8681886135ba565b90508181036080830152613b9a81876135ba565b9050613ba960a08301866135f3565b613bb660c0830185613b35565b613bc360e083018461393e565b9998505050505050505050565b60068110613bdd57600080fd5b50565b600081359050613bef81613bd0565b92915050565b600080600060408486031215613c0e57613c0d6132a4565b5b6000613c1c86828701613be0565b935050602084013567ffffffffffffffff811115613c3d57613c3c6132a9565b5b613c49868287016132f3565b92509250509250925092565b6000608082019050613c6a600083018761393e565b613c776020830186613b35565b613c846040830185613554565b613c9160608301846135f3565b95945050505050565b613ca381613adb565b82525050565b613cb281613b23565b82525050565b600061010083016000830151613cd160008601826139d3565b506020830151613ce46020860182613c9a565b506040830151613cf760408601826137f9565b5060608301518482036060860152613d0f8282613828565b91505060808301518482036080860152613d298282613828565b91505060a0830151613d3e60a086018261387c565b5060c0830151613d5160c0860182613ca9565b5060e0830151613d6460e086018261386d565b508091505092915050565b60006020820190508181036000830152613d898184613cb8565b905092915050565b600081519050919050565b600082825260208201905092915050565b6000819050602082019050919050565b600060e083016000830151613dd560008601826139d3565b506020830151613de86020860182613808565b506040830151613dfb60408601826137f9565b5060608301518482036060860152613e138282613828565b91505060808301518482036080860152613e2d8282613828565b91505060a083015184820360a0860152613e478282613828565b91505060c0830151613e5c60c086018261387c565b508091505092915050565b6000613e738383613dbd565b905092915050565b6000602082019050919050565b6000613e9382613d91565b613e9d8185613d9c565b935083602082028501613eaf85613dad565b8060005b85811015613eeb5784840389528151613ecc8582613e67565b9450613ed783613e7b565b925060208a01995050600181019050613eb3565b50829750879550505050505092915050565b60006020820190508181036000830152613f178184613e88565b905092915050565b7f55736572206e6f74207265676973746572656400000000000000000000000000600082015250565b6000613f5560138361356e565b9150613f6082613f1f565b602082019050919050565b60006020820190508181036000830152613f8481613f48565b9050919050565b7f556e617574686f72697a656420726f6c65000000000000000000000000000000600082015250565b6000613fc160118361356e565b9150613fcc82613f8b565b602082019050919050565b60006020820190508181036000830152613ff081613fb4565b9050919050565b7f426174636820646f6573206e6f74206578697374000000000000000000000000600082015250565b600061402d60148361356e565b915061403882613ff7565b602082019050919050565b6000602082019050818103600083015261405c81614020565b9050919050565b7f496e76616c696420626174636820737461747573000000000000000000000000600082015250565b600061409960148361356e565b91506140a482614063565b602082019050919050565b600060208201905081810360008301526140c88161408c565b9050919050565b600082905092915050565b7f4e487b7100000000000000000000000000000000000000000000000000000000600052604160045260246000fd5b7f4e487b7100000000000000000000000000000000000000000000000000000000600052602260045260246000fd5b6000600282049050600182168061415057607f821691505b60208210810361416357614162614109565b5b50919050565b60008190508160005260206000209050919050565b60006020601f8301049050919050565b600082821b905092915050565b6000600883026141cb7fffffffffffffffffffffffffffffffffffffffffffffffffffffffffffffffff8261418e565b6141d5868361418e565b95508019841693508086168417925050509392505050565b6000819050919050565b600061421261420d614208846133de565b6141ed565b6133de565b9050919050565b6000819050919050565b61422c836141f7565b61424061423882614219565b84845461419b565b825550505050565b600090565b614255614248565b614260818484614223565b505050565b5b818110156142845761427960008261424d565b600181019050614266565b5050565b601f8211156142c95761429a81614169565b6142a38461417e565b810160208510156142b2578190505b6142c66142be8561417e565b830182614265565b50505b505050565b600082821c905092915050565b60006142ec600019846008026142ce565b1980831691505092915050565b600061430583836142db565b9150826002028217905092915050565b61431f83836140cf565b67ffffffffffffffff811115614338576143376140da565b5b6143428254614138565b61434d828285614288565b6000601f83116001811461437c576000841561436a578287013590505b61437485826142f9565b8655506143dc565b601f19841661438a86614169565b60005b828110156143b25784890135825560018201915060208501945060208101905061438d565b868310156143cf57848901356143cb601f8916826142db565b8355505b6001600288020188555050505b50505050505050565b7f4e487b7100000000000000000000000000000000000000000000000000000000600052601160045260246000fd5b600061441f826133de565b91507fffffffffffffffffffffffffffffffffffffffffffffffffffffffffffffffff8203614451576144506143e5565b5b600182019050919050565b60008160601b9050919050565b60006144748261445c565b9050919050565b600061448682614469565b9050919050565b61449e61449982613542565b61447b565b82525050565b6000819050919050565b6144bf6144ba826133de565b6144a4565b82525050565b60006144d1828661448d565b6014820191506144e182856144ae565b6020820191506144f182846144ae565b602082019150819050949350505050565b61450b82613563565b67ffffffffffffffff811115614524576145236140da565b5b61452e8254614138565b614539828285614288565b600060209050601f83116001811461456c576000841561455a578287015190505b61456485826142f9565b8655506145cc565b601f19841661457a86614169565b60005b828110156145a25784890151825560018201915060208501945060208101905061457d565b868310156145bf57848901516145bb601f8916826142db565b8355505b6001600288020188555050505b505050505050565b60006020820190506145e96000830184613aed565b92915050565b7f4261746368206e6f74206c616220766572696669656400000000000000000000600082015250565b600061462560168361356e565b9150614630826145ef565b602082019050919050565b6000602082019050818103600083015261465481614618565b9050919050565b7f4261746368206e6f7420696e207472616e736974000000000000000000000000600082015250565b600061469160148361356e565b915061469c8261465b565b602082019050919050565b600060208201905081810360008301526146c081614684565b9050919050565b7f4261746368206e6f7420696e2077617265686f75736500000000000000000000600082015250565b60006146fd60168361356e565b9150614708826146c7565b602082019050919050565b6000602082019050818103600083015261472c816146f0565b9050919050565b82818337600083830152505050565b600061474e838561356e565b935061475b838584614733565b614764836135a9565b840190509392505050565b6000602082019050818103600083015261478a818486614742565b90509392505050565b7f4e6f742063757272656e74206f776e6572000000000000000000000000000000600082015250565b60006147c960118361356e565b91506147d482614793565b602082019050919050565b600060208201905081810360008301526147f8816147bc565b9050919050565b7f416c726561647920726567697374657265640000000000000000000000000000600082015250565b600061483560128361356e565b9150614840826147ff565b602082019050919050565b6000602082019050818103600083015261486481614828565b9050919050565b7f4e616d6520726571756972656400000000000000000000000000000000000000600082015250565b60006148a1600d8361356e565b91506148ac8261486b565b602082019050919050565b600060208201905081810360008301526148d081614894565b9050919050565b60006040820190506148ec6000830186613513565b81810360208301526148ff818486614742565b9050949350505050565b7f4261746368206e6f7420617070726f7665640000000000000000000000000000600082015250565b600061493f60128361356e565b915061494a82614909565b602082019050919050565b6000602082019050818103600083015261496e81614932565b905091905056fea2646970667358221220b7bd3329feb85ccf23ef1f09e8854748cb3919e955f165833748b3fe019a4d4d64736f6c63430008130033",
  "linkReferences": {},
  "deployedLinkReferences": {}
}