{
  "_format": "hh-sol-artifact-1",
  "contractName": "ProvenanceTracker",
  "sourceName": "contracts/ProvenanceTracker.sol",
  "abi": [
    {
      "inputs": [],
      "stateMutability": "nonpayable",
      "type": "constructor"
    },
    {
      "anonymous": false,
      "inputs": [
        {
          "indexed": true,
          "internalType": "bytes32",
          "name": "batchId",
          "type": "bytes32"
        },
        {
          "indexed": true,
          "internalType": "address",
          "name": "admin",
          "type": "address"
        }
      ],
      "name": "BatchApproved",
      "type": "event"
    },
    {
      "anonymous": false,
      "inputs": [
        {
          "indexed": true,
          "internalType": "bytes32",
          "name": "batchId",
          "type": "bytes32"
        },
        {
          "indexed": true,
          "internalType": "address",
          "name": "producer",
          "type": "address"
        },
        {
          "indexed": false,
          "internalType": "enum ProvenanceTracker.IndustryType",
          "name": "industryType",
          "type": "uint8"
        }
      ],
      "name": "BatchCreated",
      "type": "event"
    },
    {
      "anonymous": false,
      "inputs": [
        {
          "indexed": true,
          "internalType": "bytes32",
          "name": "batchId",
          "type": "bytes32"
        },
        {
          "indexed": true,
          "internalType": "address",
          "name": "transport",
          "type": "address"
        }
      ],
      "name": "BatchDelivered",
      "type": "event"
    },
    {
      "anonymous": false,
      "inputs": [
        {
          "indexed": true,
          "internalType": "bytes32",
          "name": "batchId",
          "type": "bytes32"
        },
        {
          "indexed": true,
          "internalType": "address",
          "name": "warehouse",
          "type": "address"
        }
      ],
      "name": "BatchStored",
      "type": "event"
    },
    {
      "anonymous": false,
      "inputs": [
        {
          "indexed": true,
          "internalType": "bytes32",
          "name": "batchId",
          "type": "bytes32"
        },
        {
          "indexed": true,
          "internalType": "address",
          "name": "transport",
          "type": "address"
        }
      ],
      "name": "BatchTransported",
      "type": "event"
    },
    {
      "anonymous": false,
      "inputs": [
        {
          "indexed": true,
          "internalType": "bytes32",
          "name": "batchId",
          "type": "bytes32"
        },
        {
          "indexed": true,
          "internalType": "address",
          "name": "middleman",
          "type": "address"
        }
      ],
      "name": "CustodyAccepted",
      "type": "event"
    },
    {
      "anonymous": false,
      "inputs": [
        {
          "indexed": true,
          "internalType": "bytes32",
          "name": "batchId",
          "type": "bytes32"
        },
        {
          "indexed": true,
          "internalType": "address",
          "name": "lab",
          "type": "address"
        },
        {
          "indexed": false,
          "internalType": "string",
          "name": "resultHash",
          "type": "string"
        }
      ],
      "name": "LabResultUploaded",
      "type": "event"
    },
    {
      "anonymous": false,
      "inputs": [
        {
          "indexed": true,
          "internalType": "address",
          "name": "wallet",
          "type": "address"
        },
        {
          "indexed": false,
          "internalType": "enum ProvenanceTracker.Role",
          "name": "role",
          "type": "uint8"
        },
        {
          "indexed": false,
          "internalType": "string",
          "name": "name",
          "type": "string"
        }
      ],
      "name": "UserRegistered",
      "type": "event"
    },
    {
      "inputs": [
        {
          "internalType": "bytes32",
          "name": "_batchId",
          "type": "bytes32"
        },
        {
          "internalType": "string",
          "name": "_metadataHash",
          "type": "string"
        },
        {
          "internalType": "string",
          "name": "_photoHash",
          "type": "string"
        }
      ],
      "name": "acceptCustody",
      "outputs": [],
      "stateMutability": "nonpayable",
      "type": "function"
    },
    {
      "inputs": [
        {
          "internalType": "bytes32",
          "name": "_batchId",
          "type": "bytes32"
        },
        {
          "internalType": "string",
          "name": "_metadataHash",
          "type": "string"
        }
      ],
      "name": "adminApprove",
      "outputs": [],
      "stateMutability": "nonpayable",
      "type": "function"
    },
    {
      "inputs": [
        {
          "internalType": "uint256",
          "name": "",
          "type": "uint256"
        }
      ],
      "name": "allBatchIds",
      "outputs": [
        {
          "internalType": "bytes32",
          "name": "",
          "type": "bytes32"
        }
      ],
      "stateMutability": "view",
      "type": "function"
    },
    {
      "inputs": [
        {
          "internalType": "bytes32",
          "name": "",
          "type": "bytes32"
        },
        {
          "internalType": "uint256",
          "name": "",
          "type": "uint256"
        }
      ],
      "name": "batchHistory",
      "outputs": [
        {
          "internalType": "bytes32",
          "name": "batchId",
          "type": "bytes32"
        },
        {
          "internalType": "enum ProvenanceTracker.Role",
          "name": "role",
          "type": "uint8"
        },
        {
          "internalType": "address",
          "name": "actor",
          "type": "address"
        },
        {
          "internalType": "string",
          "name": "metadataHash",
          "type": "string"
        },
        {
          "internalType": "string",
          "name": "photoHash",
          "type": "string"
        },
        {
          "internalType": "string",
          "name": "action",
          "type": "string"
        },
        {
          "internalType": "uint256",
          "name": "timestamp",
          "type": "uint256"
        }
      ],
      "stateMutability": "view",
      "type": "function"
    },
    {
      "inputs": [
        {
          "internalType": "bytes32",
          "name": "",
          "type": "bytes32"
        }
      ],
      "name": "batches",
      "outputs": [
        {
          "internalType": "bytes32",
          "name": "batchId",
          "type": "bytes32"
        },
        {
          "internalType": "enum ProvenanceTracker.IndustryType",
          "name": "industryType",
          "type": "uint8"
        },
        {
          "internalType": "address",
          "name": "currentOwner",
          "type": "address"
        },
        {
          "internalType": "string",
          "name": "metadataHash",
          "type": "string"
        },
        {
          "internalType": "string",
          "name": "photoHash",
          "type": "string"
        },
        {
          "internalType": "uint256",
          "name": "createdAt",
          "type": "uint256"
        },
        {
          "internalType": "enum ProvenanceTracker.BatchStatus",
          "name": "status",
          "type": "uint8"
        },
        {
          "internalType": "bool",
          "name": "exists",
          "type": "bool"
        }
      ],
      "stateMutability": "view",
      "type": "function"
    },
    {
      "inputs": [
        {
          "internalType": "enum ProvenanceTracker.IndustryType",
          "name": "_industryType",
          "type": "uint8"
        },
        {
          "internalType": "string",
          "name": "_metadataHash",
          "type": "string"
        },
        {
          "internalType": "string",
          "name": "_photoHash",
          "type": "string"
        }
      ],
      "name": "createBatch",
      "outputs": [
        {
          "internalType": "bytes32",
          "name": "",
          "type": "bytes32"
        }
      ],
      "stateMutability": "nonpayable",
      "type": "function"
    },
    {
      "inputs": [
        {
          "internalType": "bytes32",
          "name": "_batchId",
          "type": "bytes32"
        },
        {
          "internalType": "string",
          "name": "_metadataHash",
          "type": "string"
        },
        {
          "internalType": "string",
          "name": "_photoHash",
          "type": "string"
        }
      ],
      "name": "deliverBatch",
      "outputs": [],
      "stateMutability": "nonpayable",
      "type": "function"
    },
    {
      "inputs": [],
      "name": "getAllBatchIds",
      "outputs": [
        {
          "internalType": "bytes32[]",
          "name": "",
          "type": "bytes32[]"
        }
      ],
      "stateMutability": "view",
      "type": "function"
    },
    {
      "inputs": [
        {
          "internalType": "bytes32",
          "name": "_batchId",
          "type": "bytes32"
        }
      ],
      "name": "getBatch",
      "outputs": [
        {
          "components": [
            {
              "internalType": "bytes32",
              "name": "batchId",
              "type": "bytes32"
            },
            {
              "internalType": "enum ProvenanceTracker.IndustryType",
              "name": "industryType",
              "type": "uint8"
            },
            {
              "internalType": "address",
              "name": "currentOwner",
              "type": "address"
            },
            {
              "internalType": "string",
              "name": "metadataHash",
              "type": "string"
            },
            {
              "internalType": "string",
              "name": "photoHash",
              "type": "string"
            },
            {
              "internalType": "uint256",
              "name": "createdAt",
              "type": "uint256"
            },
            {
              "internalType": "enum ProvenanceTracker.BatchStatus",
              "name": "status",
              "type": "uint8"
            },
            {
              "internalType": "bool",
              "name": "exists",
              "type": "bool"
            }
          ],
          "internalType": "struct ProvenanceTracker.Batch",
          "name": "",
          "type": "tuple"
        }
      ],
      "stateMutability": "view",
      "type": "function"
    },
    {
      "inputs": [
        {
          "internalType": "bytes32",
          "name": "_batchId",
          "type": "bytes32"
        }
      ],
      "name": "getBatchHistory",
      "outputs": [
        {
          "components": [
            {
              "internalType": "bytes32",
              "name": "batchId",
              "type": "bytes32"
            },
            {
              "internalType": "enum ProvenanceTracker.Role",
              "name": "role",
              "type": "uint8"
            },
            {
              "internalType": "address",
              "name": "actor",
              "type": "address"
            },
            {
              "internalType": "string",
              "name": "metadataHash",
              "type": "string"
            },
            {
              "internalType": "string",
              "name": "photoHash",
              "type": "string"
            },
            {
              "internalType": "string",
              "name": "action",
              "type": "string"
            },
            {
              "internalType": "uint256",
              "name": "timestamp",
              "type": "uint256"
            }
          ],
          "internalType": "struct ProvenanceTracker.EventLog[]",
          "name": "",
          "type": "tuple[]"
        }
      ],
      "stateMutability": "view",
      "type": "function"
    },
    {
      "inputs": [
        {
          "internalType": "address",
          "name": "_wallet",
          "type": "address"
        }
      ],
      "name": "getUser",
      "outputs": [
        {
          "components": [
            {
              "internalType": "address",
              "name": "wallet",
              "type": "address"
            },
            {
              "internalType": "enum ProvenanceTracker.Role",
              "name": "role",
              "type": "uint8"
            },
            {
              "internalType": "string",
              "name": "name",
              "type": "string"
            },
            {
              "internalType": "bool",
              "name": "isRegistered",
              "type": "bool"
            },
            {
              "internalType": "uint256",
              "name": "registeredAt",
              "type": "uint256"
            }
          ],
          "internalType": "struct ProvenanceTracker.User",
          "name": "",
          "type": "tuple"
        }
      ],
      "stateMutability": "view",
      "type": "function"
    },
    {
      "inputs": [],
      "name": "owner",
      "outputs": [
        {
          "internalType": "address",
          "name": "",
          "type": "address"
        }
      ],
      "stateMutability": "view",
      "type": "function"
    },
    {
      "inputs": [
        {
          "internalType": "enum ProvenanceTracker.Role",
          "name": "_role",
          "type": "uint8"
        },
        {
          "internalType": "string",
          "name": "_name",
          "type": "string"
        }
      ],
      "name": "registerUser",
      "outputs": [],
      "stateMutability": "nonpayable",
      "type": "function"
    },
    {
      "inputs": [
        {
          "internalType": "bytes32",
          "name": "_batchId",
          "type": "bytes32"
        },
        {
          "internalType": "string",
          "name": "_metadataHash",
          "type": "string"
        },
        {
          "internalType": "string",
          "name": "_photoHash",
          "type": "string"
        }
      ],
      "name": "storeWarehouse",
      "outputs": [],
      "stateMutability": "nonpayable",
      "type": "function"
    },
    {
      "inputs": [
        {
          "internalType": "bytes32",
          "name": "_batchId",
          "type": "bytes32"
        },
        {
          "internalType": "string",
          "name": "_metadataHash",
          "type": "string"
        },
        {
          "internalType": "string",
          "name": "_photoHash",
          "type": "string"
        }
      ],
      "name": "transportBatch",
      "outputs": [],
      "stateMutability": "nonpayable",
      "type": "function"
    },
    {
      "inputs": [
        {
          "internalType": "bytes32",
          "name": "_batchId",
          "type": "bytes32"
        },
        {
          "internalType": "string",
          "name": "_resultHash",
          "type": "string"
        },
        {
          "internalType": "string",
          "name": "_photoHash",
          "type": "string"
        }
      ],
      "name": "uploadLabResult",
      "outputs": [],
      "stateMutability": "nonpayable",
      "type": "function"
    },
    {
      "inputs": [
        {
          "internalType": "address",
          "name": "",
          "type": "address"
        }
      ],
      "name": "users",
      "outputs": [
        {
          "internalType": "address",
          "name": "wallet",
          "type": "address"
        },
        {
          "internalType": "enum ProvenanceTracker.Role",
          "name": "role",
          "type": "uint8"
        },
        {
          "internalType": "string",
          "name": "name",
          "type": "string"
        },
        {
          "internalType": "bool",
          "name": "isRegistered",
          "type": "bool"
        },
        {
          "internalType": "uint256",
          "name": "registeredAt",
          "type": "uint256"
        }
      ],
      "stateMutability": "view",
      "type": "function"
    },
    {
      "inputs": [
        {
          "internalType": "bytes32",
          "name": "_batchId",
          "type": "bytes32"
        }
      ],
      "name": "verifyBatch",
      "outputs": [
        {
          "internalType": "bool",
          "name": "exists",
          "type": "bool"
        },
        {
          "internalType": "enum ProvenanceTracker.BatchStatus",
          "name": "status",
          "type": "uint8"
        },
        {
          "internalType": "address",
          "name": "currentOwner",
          "type": "address"
        },
        {
          "internalType": "uint256",
          "name": "eventCount",
          "type": "uint256"
        }
      ],
      "stateMutability": "view",
      "type": "function"
    }
  ],
  "bytecode": "0x60806040523480156200001157600080fd5b50336000806101000a81548173ffffffffffffffffffffffffffffffffffffffff021916908373ffffffffffffffffffffffffffffffffffffffff1602179055506040518060a001604052803373ffffffffffffffffffffffffffffffffffffffff1681526020016004600581111562000090576200008f620001e1565b5b81526020016040518060400160405280600e81526020017f506c6174666f726d2041646d696e000000000000000000000000000000000000815250815260200160011515815260200142815250600160003373ffffffffffffffffffffffffffffffffffffffff1673ffffffffffffffffffffffffffffffffffffffff16815260200190815260200160002060008201518160000160006101000a81548173ffffffffffffffffffffffffffffffffffffffff021916908373ffffffffffffffffffffffffffffffffffffffff16021790555060208201518160000160146101000a81548160ff02191690836005811115620001915762000190620001e1565b5b02179055506040820151816001019081620001ad91906200048a565b5060608201518160020160006101000a81548160ff0219169083151502179055506080820151816003015590505062000571565b7f4e487b7100000000000000000000000000000000000000000000000000000000600052602160045260246000fd5b600081519050919050565b7f4e487b7100000000000000000000000000000000000000000000000000000000600052604160045260246000fd5b7f4e487b7100000000000000000000000000000000000000000000000000000000600052602260045260246000fd5b600060028204905060018216806200029257607f821691505b602082108103620002a857620002a76200024a565b5b50919050565b60008190508160005260206000209050919050565b60006020601f8301049050919050565b600082821b905092915050565b600060088302620003127fffffffffffffffffffffffffffffffffffffffffffffffffffffffffffffffff82620002d3565b6200031e8683620002d3565b95508019841693508086168417925050509392505050565b6000819050919050565b6000819050919050565b60006200036b620003656200035f8462000336565b62000340565b62000336565b9050919050565b6000819050919050565b62000387836200034a565b6200039f620003968262000372565b848454620002e0565b825550505050565b600090565b620003b6620003a7565b620003c38184846200037c565b505050565b5b81811015620003eb57620003df600082620003ac565b600181019050620003c9565b5050565b601f8211156200043a576200040481620002ae565b6200040f84620002c3565b810160208510156200041f578190505b620004376200042e85620002c3565b830182620003c8565b50505b505050565b600082821c905092915050565b60006200045f600019846008026200043f565b1980831691505092915050565b60006200047a83836200044c565b9150826002028217905092915050565b620004958262000210565b67ffffffffffffffff811115620004b157620004b06200021b565b5b620004bd825462000279565b620004ca828285620003ef565b600060209050601f831160018114620005025760008415620004ed578287015190505b620004f985826200046c565b86555062000569565b601f1984166200051286620002ae565b60005b828110156200053c5784890151825560018201915060208501945060208101905062000515565b868310156200055c578489015162000558601f8916826200044c565b8355505b6001600288020188555050505b505050505050565b6148c980620005816000396000f3fe608060405234801561001057600080fd5b50600436106101165760003560e01c80638da5cb5b116100a2578063d29bcc5c11610071578063d29bcc5c14610314578063df05afd614610330578063e0c9fdcb1461034c578063ed42136f1461037f578063fe73f246146103af57610116565b80638da5cb5b1461026d578063a87430ba1461028b578063bce06947146102bf578063c81e25ab146102dd57610116565b806342bc06b4116100e957806342bc06b4146101cd578063601969ca146101e95780636a53b6a4146102055780636f77926b1461022157806382aceaed1461025157610116565b806323c535c91461011b578063290b17ec1461013757806330527dc114610167578063403cbbe51461019d575b600080fd5b610135600480360381019061013091906132d3565b6103df565b005b610151600480360381019061014c919061339e565b6107a4565b60405161015e91906133da565b60405180910390f35b610181600480360381019061017c91906133f5565b6107c8565b604051610194979695949392919061358c565b60405180910390f35b6101b760048036038101906101b29190613635565b6109ec565b6040516101c491906133da565b60405180910390f35b6101e760048036038101906101e291906136ca565b610ed9565b005b61020360048036038101906101fe91906132d3565b611267565b005b61021f600480360381019061021a91906132d3565b61162c565b005b61023b60048036038101906102369190613756565b6119fe565b604051610248919061388b565b60405180910390f35b61026b600480360381019061026691906132d3565b611b9f565b005b610275611fb3565b60405161028291906138ad565b60405180910390f35b6102a560048036038101906102a09190613756565b611fd7565b6040516102b69594939291906138d7565b60405180910390f35b6102c76120cf565b6040516102d491906139ef565b60405180910390f35b6102f760048036038101906102f29190613a11565b612127565b60405161030b989796959493929190613ace565b60405180910390f35b61032e60048036038101906103299190613b7f565b6122c6565b005b61034a600480360381019061034591906132d3565b612582565b005b61036660048036038101906103619190613a11565b612947565b6040516103769493929190613bdf565b60405180910390f35b61039960048036038101906103949190613a11565b612a00565b6040516103a69190613cf9565b60405180910390f35b6103c960048036038101906103c49190613a11565b612cb2565b6040516103d69190613e87565b60405180910390f35b60018060058111156103f4576103f3613435565b5b600160003373ffffffffffffffffffffffffffffffffffffffff1673ffffffffffffffffffffffffffffffffffffffff16815260200190815260200160002060000160149054906101000a900460ff16600581111561045657610455613435565b5b14806104d557506004600581111561047157610470613435565b5b600160003373ffffffffffffffffffffffffffffffffffffffff1673ffffffffffffffffffffffffffffffffffffffff16815260200190815260200160002060000160149054906101000a900460ff1660058111156104d3576104d2613435565b5b145b610514576040517f08c379a000000000000000000000000000000000000000000000000000000000815260040161050b90613ef5565b60405180910390fd5b856002600082815260200190815260200160002060050160019054906101000a900460ff16610578576040517f08c379a000000000000000000000000000000000000000000000000000000000815260040161056f90613f61565b60405180910390fd5b6000600260008981526020019081526020016000209050600060058111156105a3576105a2613435565b5b8160050160009054906101000a900460ff1660058111156105c7576105c6613435565b5b14610607576040517f08c379a00000000000000000000000000000000000000000000000000000000081526004016105fe90613fcd565b60405180910390fd5b338160010160016101000a81548173ffffffffffffffffffffffffffffffffffffffff021916908373ffffffffffffffffffffffffffffffffffffffff16021790555060018160050160006101000a81548160ff0219169083600581111561067257610671613435565b5b0217905550868682600201918261068a929190614233565b5061075688600189898080601f016020809104026020016040519081016040528093929190818152602001838380828437600081840152601f19601f8201169050808301925050505050505088888080601f016020809104026020016040519081016040528093929190818152602001838380828437600081840152601f19601f820116905080830192505050505050506040518060400160405280601081526020017f435553544f44595f414343455054454400000000000000000000000000000000815250612fe4565b3373ffffffffffffffffffffffffffffffffffffffff16887fd1273931f91ef576071a0e4eb04999f91eea49facd8f3a8e6afb20d7043f150d60405160405180910390a35050505050505050565b600481815481106107b457600080fd5b906000526020600020016000915090505481565b600360205281600052604060002081815481106107e457600080fd5b9060005260206000209060060201600091509150508060000154908060010160009054906101000a900460ff16908060010160019054906101000a900473ffffffffffffffffffffffffffffffffffffffff169080600201805461084790614056565b80601f016020809104026020016040519081016040528092919081815260200182805461087390614056565b80156108c05780601f10610895576101008083540402835291602001916108c0565b820191906000526020600020905b8154815290600101906020018083116108a357829003601f168201915b5050505050908060030180546108d590614056565b80601f016020809104026020016040519081016040528092919081815260200182805461090190614056565b801561094e5780601f106109235761010080835404028352916020019161094e565b820191906000526020600020905b81548152906001019060200180831161093157829003601f168201915b50505050509080600401805461096390614056565b80601f016020809104026020016040519081016040528092919081815260200182805461098f90614056565b80156109dc5780601f106109b1576101008083540402835291602001916109dc565b820191906000526020600020905b8154815290600101906020018083116109bf57829003601f168201915b5050505050908060050154905087565b600080806005811115610a0257610a01613435565b5b600160003373ffffffffffffffffffffffffffffffffffffffff1673ffffffffffffffffffffffffffffffffffffffff16815260200190815260200160002060000160149054906101000a900460ff166005811115610a6457610a63613435565b5b1480610ae3575060046005811115610a7f57610a7e613435565b5b600160003373ffffffffffffffffffffffffffffffffffffffff1673ffffffffffffffffffffffffffffffffffffffff16815260200190815260200160002060000160149054906101000a900460ff166005811115610ae157610ae0613435565b5b145b610b22576040517f08c379a0000000000000000000000000000000000000000000000000000000008152600401610b1990613ef5565b60405180910390fd5b60056000815480929190610b3590614332565b919050555060003342600554604051602001610b53939291906143e3565b604051602081830303815290604052805190602001209050604051806101000160405280828152602001896001811115610b9057610b8f613435565b5b81526020013373ffffffffffffffffffffffffffffffffffffffff16815260200188888080601f016020809104026020016040519081016040528093929190818152602001838380828437600081840152601f19601f82011690508083019250505050505050815260200186868080601f016020809104026020016040519081016040528093929190818152602001838380828437600081840152601f19601f82011690508083019250505050505050815260200142815260200160006005811115610c5f57610c5e613435565b5b815260200160011515815250600260008381526020019081526020016000206000820151816000015560208201518160010160006101000a81548160ff02191690836001811115610cb357610cb2613435565b5b021790555060408201518160010160016101000a81548173ffffffffffffffffffffffffffffffffffffffff021916908373ffffffffffffffffffffffffffffffffffffffff1602179055506060820151816002019081610d149190614420565b506080820151816003019081610d2a9190614420565b5060a0820151816004015560c08201518160050160006101000a81548160ff02191690836005811115610d6057610d5f613435565b5b021790555060e08201518160050160016101000a81548160ff0219169083151502179055509050506004819080600181540180825580915050600190039060005260206000200160009091909190915055610e7c81600089898080601f016020809104026020016040519081016040528093929190818152602001838380828437600081840152601f19601f8201169050808301925050505050505088888080601f016020809104026020016040519081016040528093929190818152602001838380828437600081840152601f19601f820116905080830192505050505050506040518060400160405280600d81526020017f42415443485f4352454154454400000000000000000000000000000000000000815250612fe4565b3373ffffffffffffffffffffffffffffffffffffffff16817fad83c1d04cfeb9e06f62fbf1ce7db9d60614078cfb80c6557ba9076e1e9b10ab8a604051610ec391906144f2565b60405180910390a3809250505095945050505050565b6004806005811115610eee57610eed613435565b5b600160003373ffffffffffffffffffffffffffffffffffffffff1673ffffffffffffffffffffffffffffffffffffffff16815260200190815260200160002060000160149054906101000a900460ff166005811115610f5057610f4f613435565b5b1480610fcf575060046005811115610f6b57610f6a613435565b5b600160003373ffffffffffffffffffffffffffffffffffffffff1673ffffffffffffffffffffffffffffffffffffffff16815260200190815260200160002060000160149054906101000a900460ff166005811115610fcd57610fcc613435565b5b145b61100e576040517f08c379a000000000000000000000000000000000000000000000000000000000815260040161100590613ef5565b60405180910390fd5b836002600082815260200190815260200160002060050160019054906101000a900460ff16611072576040517f08c379a000000000000000000000000000000000000000000000000000000000815260040161106990613f61565b60405180910390fd5b60006002600087815260200190815260200160002090506003600581111561109d5761109c613435565b5b8160050160009054906101000a900460ff1660058111156110c1576110c0613435565b5b14611101576040517f08c379a00000000000000000000000000000000000000000000000000000000081526004016110f890614559565b60405180910390fd5b338160010160016101000a81548173ffffffffffffffffffffffffffffffffffffffff021916908373ffffffffffffffffffffffffffffffffffffffff16021790555060048160050160006101000a81548160ff0219169083600581111561116c5761116b613435565b5b02179055508484826002019182611184929190614233565b5061121b86600487878080601f016020809104026020016040519081016040528093929190818152602001838380828437600081840152601f19601f82011690508083019250505050505050604051806020016040528060008152506040518060400160405280600e81526020017f41444d494e5f415050524f564544000000000000000000000000000000000000815250612fe4565b3373ffffffffffffffffffffffffffffffffffffffff16867fc1611308cfa3fc232c31632351a321e6f8ca79418f062ce07bb645f33d85978e60405160405180910390a3505050505050565b600280600581111561127c5761127b613435565b5b600160003373ffffffffffffffffffffffffffffffffffffffff1673ffffffffffffffffffffffffffffffffffffffff16815260200190815260200160002060000160149054906101000a900460ff1660058111156112de576112dd613435565b5b148061135d5750600460058111156112f9576112f8613435565b5b600160003373ffffffffffffffffffffffffffffffffffffffff1673ffffffffffffffffffffffffffffffffffffffff16815260200190815260200160002060000160149054906101000a900460ff16600581111561135b5761135a613435565b5b145b61139c576040517f08c379a000000000000000000000000000000000000000000000000000000000815260040161139390613ef5565b60405180910390fd5b856002600082815260200190815260200160002060050160019054906101000a900460ff16611400576040517f08c379a00000000000000000000000000000000000000000000000000000000081526004016113f790613f61565b60405180910390fd5b60006002600089815260200190815260200160002090506001600581111561142b5761142a613435565b5b8160050160009054906101000a900460ff16600581111561144f5761144e613435565b5b1461148f576040517f08c379a0000000000000000000000000000000000000000000000000000000008152600401611486906145c5565b60405180910390fd5b338160010160016101000a81548173ffffffffffffffffffffffffffffffffffffffff021916908373ffffffffffffffffffffffffffffffffffffffff16021790555060028160050160006101000a81548160ff021916908360058111156114fa576114f9613435565b5b02179055508686826002019182611512929190614233565b506115de88600289898080601f016020809104026020016040519081016040528093929190818152602001838380828437600081840152601f19601f8201169050808301925050505050505088888080601f016020809104026020016040519081016040528093929190818152602001838380828437600081840152601f19601f820116905080830192505050505050506040518060400160405280601381526020017f53544f5245445f494e5f57415245484f55534500000000000000000000000000815250612fe4565b3373ffffffffffffffffffffffffffffffffffffffff16887f9d9f7fa58c834cdc4e251eb3118f408e3dd0bbba48309c3a594f8ee29857ce3260405160405180910390a35050505050505050565b600380600581111561164157611640613435565b5b600160003373ffffffffffffffffffffffffffffffffffffffff1673ffffffffffffffffffffffffffffffffffffffff16815260200190815260200160002060000160149054906101000a900460ff1660058111156116a3576116a2613435565b5b14806117225750600460058111156116be576116bd613435565b5b600160003373ffffffffffffffffffffffffffffffffffffffff1673ffffffffffffffffffffffffffffffffffffffff16815260200190815260200160002060000160149054906101000a900460ff1660058111156117205761171f613435565b5b145b611761576040517f08c379a000000000000000000000000000000000000000000000000000000000815260040161175890613ef5565b60405180910390fd5b856002600082815260200190815260200160002060050160019054906101000a900460ff166117c5576040517f08c379a00000000000000000000000000000000000000000000000000000000081526004016117bc90613f61565b60405180910390fd5b6000600260008981526020019081526020016000209050600260058111156117f0576117ef613435565b5b8160050160009054906101000a900460ff16600581111561181457611813613435565b5b14611854576040517f08c379a000000000000000000000000000000000000000000000000000000000815260040161184b90614631565b60405180910390fd5b338160010160016101000a81548173ffffffffffffffffffffffffffffffffffffffff021916908373ffffffffffffffffffffffffffffffffffffffff16021790555060038160050160006101000a81548160ff021916908360058111156118bf576118be613435565b5b021790555086868260020191826118d7929190614233565b506119a388600389898080601f016020809104026020016040519081016040528093929190818152602001838380828437600081840152601f19601f8201169050808301925050505050505088888080601f016020809104026020016040519081016040528093929190818152602001838380828437600081840152601f19601f820116905080830192505050505050506040518060400160405280601381526020017f4c41425f524553554c545f55504c4f4144454400000000000000000000000000815250612fe4565b3373ffffffffffffffffffffffffffffffffffffffff16887f414c26f6aed0416504d3163a00f23a1056e986802fa39f7731de0e4f776c3c0589896040516119ec92919061468d565b60405180910390a35050505050505050565b611a06613151565b600160008373ffffffffffffffffffffffffffffffffffffffff1673ffffffffffffffffffffffffffffffffffffffff1681526020019081526020016000206040518060a00160405290816000820160009054906101000a900473ffffffffffffffffffffffffffffffffffffffff1673ffffffffffffffffffffffffffffffffffffffff1673ffffffffffffffffffffffffffffffffffffffff1681526020016000820160149054906101000a900460ff166005811115611acb57611aca613435565b5b6005811115611add57611adc613435565b5b8152602001600182018054611af190614056565b80601f0160208091040260200160405190810160405280929190818152602001828054611b1d90614056565b8015611b6a5780601f10611b3f57610100808354040283529160200191611b6a565b820191906000526020600020905b815481529060010190602001808311611b4d57829003601f168201915b505050505081526020016002820160009054906101000a900460ff161515151581526020016003820154815250509050919050565b6005806005811115611bb457611bb3613435565b5b600160003373ffffffffffffffffffffffffffffffffffffffff1673ffffffffffffffffffffffffffffffffffffffff16815260200190815260200160002060000160149054906101000a900460ff166005811115611c1657611c15613435565b5b1480611c95575060046005811115611c3157611c30613435565b5b600160003373ffffffffffffffffffffffffffffffffffffffff1673ffffffffffffffffffffffffffffffffffffffff16815260200190815260200160002060000160149054906101000a900460ff166005811115611c9357611c92613435565b5b145b611cd4576040517f08c379a0000000000000000000000000000000000000000000000000000000008152600401611ccb90613ef5565b60405180910390fd5b856002600082815260200190815260200160002060050160019054906101000a900460ff16611d38576040517f08c379a0000000000000000000000000000000000000000000000000000000008152600401611d2f90613f61565b60405180910390fd5b600060026000898152602001908152602001600020905060016005811115611d6357611d62613435565b5b8160050160009054906101000a900460ff166005811115611d8757611d86613435565b5b14611dc7576040517f08c379a0000000000000000000000000000000000000000000000000000000008152600401611dbe906145c5565b60405180910390fd5b3373ffffffffffffffffffffffffffffffffffffffff168160010160019054906101000a900473ffffffffffffffffffffffffffffffffffffffff1673ffffffffffffffffffffffffffffffffffffffff1614611e59576040517f08c379a0000000000000000000000000000000000000000000000000000000008152600401611e50906146fd565b60405180910390fd5b60058160050160006101000a81548160ff02191690836005811115611e8157611e80613435565b5b02179055508686826002019182611e99929190614233565b50611f6588600589898080601f016020809104026020016040519081016040528093929190818152602001838380828437600081840152601f19601f8201169050808301925050505050505088888080601f016020809104026020016040519081016040528093929190818152602001838380828437600081840152601f19601f820116905080830192505050505050506040518060400160405280600981526020017f44454c4956455245440000000000000000000000000000000000000000000000815250612fe4565b3373ffffffffffffffffffffffffffffffffffffffff16887fd8bf522bd379b573da8aae8620196ea648dbdf4a808a5647d1bb16155c5a3e1760405160405180910390a35050505050505050565b60008054906101000a900473ffffffffffffffffffffffffffffffffffffffff1681565b60016020528060005260406000206000915090508060000160009054906101000a900473ffffffffffffffffffffffffffffffffffffffff16908060000160149054906101000a900460ff169080600101805461203390614056565b80601f016020809104026020016040519081016040528092919081815260200182805461205f90614056565b80156120ac5780601f10612081576101008083540402835291602001916120ac565b820191906000526020600020905b81548152906001019060200180831161208f57829003601f168201915b5050505050908060020160009054906101000a900460ff16908060030154905085565b6060600480548060200260200160405190810160405280929190818152602001828054801561211d57602002820191906000526020600020905b815481526020019060010190808311612109575b5050505050905090565b60026020528060005260406000206000915090508060000154908060010160009054906101000a900460ff16908060010160019054906101000a900473ffffffffffffffffffffffffffffffffffffffff169080600201805461218990614056565b80601f01602080910402602001604051908101604052809291908181526020018280546121b590614056565b80156122025780601f106121d757610100808354040283529160200191612202565b820191906000526020600020905b8154815290600101906020018083116121e557829003601f168201915b50505050509080600301805461221790614056565b80601f016020809104026020016040519081016040528092919081815260200182805461224390614056565b80156122905780601f1061226557610100808354040283529160200191612290565b820191906000526020600020905b81548152906001019060200180831161227357829003601f168201915b5050505050908060040154908060050160009054906101000a900460ff16908060050160019054906101000a900460ff16905088565b600160003373ffffffffffffffffffffffffffffffffffffffff1673ffffffffffffffffffffffffffffffffffffffff16815260200190815260200160002060020160009054906101000a900460ff1615612356576040517f08c379a000000000000000000000000000000000000000000000000000000000815260040161234d90614769565b60405180910390fd5b6000828290501161239c576040517f08c379a0000000000000000000000000000000000000000000000000000000008152600401612393906147d5565b60405180910390fd5b6040518060a001604052803373ffffffffffffffffffffffffffffffffffffffff1681526020018460058111156123d6576123d5613435565b5b815260200183838080601f016020809104026020016040519081016040528093929190818152602001838380828437600081840152601f19601f82011690508083019250505050505050815260200160011515815260200142815250600160003373ffffffffffffffffffffffffffffffffffffffff1673ffffffffffffffffffffffffffffffffffffffff16815260200190815260200160002060008201518160000160006101000a81548173ffffffffffffffffffffffffffffffffffffffff021916908373ffffffffffffffffffffffffffffffffffffffff16021790555060208201518160000160146101000a81548160ff021916908360058111156124e3576124e2613435565b5b021790555060408201518160010190816124fd9190614420565b5060608201518160020160006101000a81548160ff021916908315150217905550608082015181600301559050503373ffffffffffffffffffffffffffffffffffffffff167f04221ffa167b8d0a33647e46ee4f6728f4fe3651e4d56715ed0941b12046147b848484604051612575939291906147f5565b60405180910390a2505050565b600580600581111561259757612596613435565b5b600160003373ffffffffffffffffffffffffffffffffffffffff1673ffffffffffffffffffffffffffffffffffffffff16815260200190815260200160002060000160149054906101000a900460ff1660058111156125f9576125f8613435565b5b148061267857506004600581111561261457612613613435565b5b600160003373ffffffffffffffffffffffffffffffffffffffff1673ffffffffffffffffffffffffffffffffffffffff16815260200190815260200160002060000160149054906101000a900460ff16600581111561267657612675613435565b5b145b6126b7576040517f08c379a00000000000000000000000000000000000000000000000000000000081526004016126ae90613ef5565b60405180910390fd5b856002600082815260200190815260200160002060050160019054906101000a900460ff1661271b576040517f08c379a000000000000000000000000000000000000000000000000000000000815260040161271290613f61565b60405180910390fd5b60006002600089815260200190815260200160002090506004600581111561274657612745613435565b5b8160050160009054906101000a900460ff16600581111561276a57612769613435565b5b146127aa576040517f08c379a00000000000000000000000000000000000000000000000000000000081526004016127a190614873565b60405180910390fd5b338160010160016101000a81548173ffffffffffffffffffffffffffffffffffffffff021916908373ffffffffffffffffffffffffffffffffffffffff16021790555060018160050160006101000a81548160ff0219169083600581111561281557612814613435565b5b0217905550868682600201918261282d929190614233565b506128f988600589898080601f016020809104026020016040519081016040528093929190818152602001838380828437600081840152601f19601f8201169050808301925050505050505088888080601f016020809104026020016040519081016040528093929190818152602001838380828437600081840152601f19601f820116905080830192505050505050506040518060400160405280601181526020017f5452414e53504f52545f53544152544544000000000000000000000000000000815250612fe4565b3373ffffffffffffffffffffffffffffffffffffffff16887f74c725a8fc8fb43bf6faa13f1ef16127fdad652347f24c7b8b9bbf031b8fde6a60405160405180910390a35050505050505050565b6000806000806002600086815260200190815260200160002060050160019054906101000a900460ff166129885760008060008093509350935093506129f9565b600060026000878152602001908152602001600020905060018160050160009054906101000a900460ff168260010160019054906101000a900473ffffffffffffffffffffffffffffffffffffffff16600360008a8152602001908152602001600020805490509450945094509450505b9193509193565b612a086131aa565b816002600082815260200190815260200160002060050160019054906101000a900460ff16612a6c576040517f08c379a0000000000000000000000000000000000000000000000000000000008152600401612a6390613f61565b60405180910390fd5b6002600084815260200190815260200160002060405180610100016040529081600082015481526020016001820160009054906101000a900460ff166001811115612aba57612ab9613435565b5b6001811115612acc57612acb613435565b5b81526020016001820160019054906101000a900473ffffffffffffffffffffffffffffffffffffffff1673ffffffffffffffffffffffffffffffffffffffff1673ffffffffffffffffffffffffffffffffffffffff168152602001600282018054612b3690614056565b80601f0160208091040260200160405190810160405280929190818152602001828054612b6290614056565b8015612baf5780601f10612b8457610100808354040283529160200191612baf565b820191906000526020600020905b815481529060010190602001808311612b9257829003601f168201915b50505050508152602001600382018054612bc890614056565b80601f0160208091040260200160405190810160405280929190818152602001828054612bf490614056565b8015612c415780601f10612c1657610100808354040283529160200191612c41565b820191906000526020600020905b815481529060010190602001808311612c2457829003601f168201915b50505050508152602001600482015481526020016005820160009054906101000a900460ff166005811115612c7957612c78613435565b5b6005811115612c8b57612c8a613435565b5b81526020016005820160019054906101000a900460ff161515151581525050915050919050565b6060816002600082815260200190815260200160002060050160019054906101000a900460ff16612d18576040517f08c379a0000000000000000000000000000000000000000000000000000000008152600401612d0f90613f61565b60405180910390fd5b60036000848152602001908152602001600020805480602002602001604051908101604052809291908181526020016000905b82821015612fd857838290600052602060002090600602016040518060e0016040529081600082015481526020016001820160009054906101000a900460ff166005811115612d9d57612d9c613435565b5b6005811115612daf57612dae613435565b5b81526020016001820160019054906101000a900473ffffffffffffffffffffffffffffffffffffffff1673ffffffffffffffffffffffffffffffffffffffff1673ffffffffffffffffffffffffffffffffffffffff168152602001600282018054612e1990614056565b80601f0160208091040260200160405190810160405280929190818152602001828054612e4590614056565b8015612e925780601f10612e6757610100808354040283529160200191612e92565b820191906000526020600020905b815481529060010190602001808311612e7557829003601f168201915b50505050508152602001600382018054612eab90614056565b80601f0160208091040260200160405190810160405280929190818152602001828054612ed790614056565b8015612f245780601f10612ef957610100808354040283529160200191612f24565b820191906000526020600020905b815481529060010190602001808311612f0757829003601f168201915b50505050508152602001600482018054612f3d90614056565b80601f0160208091040260200160405190810160405280929190818152602001828054612f6990614056565b8015612fb65780601f10612f8b57610100808354040283529160200191612fb6565b820191906000526020600020905b815481529060010190602001808311612f9957829003601f168201915b5050505050815260200160058201548152505081526020019060010190612d4b565b50505050915050919050565b600360008681526020019081526020016000206040518060e0016040528087815260200186600581111561301b5761301a613435565b5b81526020013373ffffffffffffffffffffffffffffffffffffffff1681526020018581526020018481526020018381526020014281525090806001815401808255809150506001900390600052602060002090600602016000909190919091506000820151816000015560208201518160010160006101000a81548160ff021916908360058111156130b0576130af613435565b5b021790555060408201518160010160016101000a81548173ffffffffffffffffffffffffffffffffffffffff021916908373ffffffffffffffffffffffffffffffffffffffff16021790555060608201518160020190816131119190614420565b5060808201518160030190816131279190614420565b5060a082015181600401908161313d9190614420565b5060c0820151816005015550505050505050565b6040518060a00160405280600073ffffffffffffffffffffffffffffffffffffffff1681526020016000600581111561318d5761318c613435565b5b815260200160608152602001600015158152602001600081525090565b60405180610100016040528060008019168152602001600060018111156131d4576131d3613435565b5b8152602001600073ffffffffffffffffffffffffffffffffffffffff1681526020016060815260200160608152602001600081526020016000600581111561321f5761321e613435565b5b81526020016000151581525090565b600080fd5b600080fd5b6000819050919050565b61324b81613238565b811461325657600080fd5b50565b60008135905061326881613242565b92915050565b600080fd5b600080fd5b600080fd5b60008083601f8401126132935761329261326e565b5b8235905067ffffffffffffffff8111156132b0576132af613273565b5b6020830191508360018202830111156132cc576132cb613278565b5b9250929050565b6000806000806000606086880312156132ef576132ee61322e565b5b60006132fd88828901613259565b955050602086013567ffffffffffffffff81111561331e5761331d613233565b5b61332a8882890161327d565b9450945050604086013567ffffffffffffffff81111561334d5761334c613233565b5b6133598882890161327d565b92509250509295509295909350565b6000819050919050565b61337b81613368565b811461338657600080fd5b50565b60008135905061339881613372565b92915050565b6000602082840312156133b4576133b361322e565b5b60006133c284828501613389565b91505092915050565b6133d481613238565b82525050565b60006020820190506133ef60008301846133cb565b92915050565b6000806040838503121561340c5761340b61322e565b5b600061341a85828601613259565b925050602061342b85828601613389565b9150509250929050565b7f4e487b7100000000000000000000000000000000000000000000000000000000600052602160045260246000fd5b6006811061347557613474613435565b5b50565b600081905061348682613464565b919050565b600061349682613478565b9050919050565b6134a68161348b565b82525050565b600073ffffffffffffffffffffffffffffffffffffffff82169050919050565b60006134d7826134ac565b9050919050565b6134e7816134cc565b82525050565b600081519050919050565b600082825260208201905092915050565b60005b8381101561352757808201518184015260208101905061350c565b60008484015250505050565b6000601f19601f8301169050919050565b600061354f826134ed565b61355981856134f8565b9350613569818560208601613509565b61357281613533565b840191505092915050565b61358681613368565b82525050565b600060e0820190506135a1600083018a6133cb565b6135ae602083018961349d565b6135bb60408301886134de565b81810360608301526135cd8187613544565b905081810360808301526135e18186613544565b905081810360a08301526135f58185613544565b905061360460c083018461357d565b98975050505050505050565b6002811061361d57600080fd5b50565b60008135905061362f81613610565b92915050565b6000806000806000606086880312156136515761365061322e565b5b600061365f88828901613620565b955050602086013567ffffffffffffffff8111156136805761367f613233565b5b61368c8882890161327d565b9450945050604086013567ffffffffffffffff8111156136af576136ae613233565b5b6136bb8882890161327d565b92509250509295509295909350565b6000806000604084860312156136e3576136e261322e565b5b60006136f186828701613259565b935050602084013567ffffffffffffffff81111561371257613711613233565b5b61371e8682870161327d565b92509250509250925092565b613733816134cc565b811461373e57600080fd5b50565b6000813590506137508161372a565b92915050565b60006020828403121561376c5761376b61322e565b5b600061377a84828501613741565b91505092915050565b61378c816134cc565b82525050565b61379b8161348b565b82525050565b600082825260208201905092915050565b60006137bd826134ed565b6137c781856137a1565b93506137d7818560208601613509565b6137e081613533565b840191505092915050565b60008115159050919050565b613800816137eb565b82525050565b61380f81613368565b82525050565b600060a08301600083015161382d6000860182613783565b5060208301516138406020860182613792565b506040830151848203604086015261385882826137b2565b915050606083015161386d60608601826137f7565b5060808301516138806080860182613806565b508091505092915050565b600060208201905081810360008301526138a58184613815565b905092915050565b60006020820190506138c260008301846134de565b92915050565b6138d1816137eb565b82525050565b600060a0820190506138ec60008301886134de565b6138f9602083018761349d565b818103604083015261390b8186613544565b905061391a60608301856138c8565b613927608083018461357d565b9695505050505050565b600081519050919050565b600082825260208201905092915050565b6000819050602082019050919050565b61396681613238565b82525050565b6000613978838361395d565b60208301905092915050565b6000602082019050919050565b600061399c82613931565b6139a6818561393c565b93506139b18361394d565b8060005b838110156139e25781516139c9888261396c565b97506139d483613984565b9250506001810190506139b5565b5085935050505092915050565b60006020820190508181036000830152613a098184613991565b905092915050565b600060208284031215613a2757613a2661322e565b5b6000613a3584828501613259565b91505092915050565b60028110613a4f57613a4e613435565b5b50565b6000819050613a6082613a3e565b919050565b6000613a7082613a52565b9050919050565b613a8081613a65565b82525050565b60068110613a9757613a96613435565b5b50565b6000819050613aa882613a86565b919050565b6000613ab882613a9a565b9050919050565b613ac881613aad565b82525050565b600061010082019050613ae4600083018b6133cb565b613af1602083018a613a77565b613afe60408301896134de565b8181036060830152613b108188613544565b90508181036080830152613b248187613544565b9050613b3360a083018661357d565b613b4060c0830185613abf565b613b4d60e08301846138c8565b9998505050505050505050565b60068110613b6757600080fd5b50565b600081359050613b7981613b5a565b92915050565b600080600060408486031215613b9857613b9761322e565b5b6000613ba686828701613b6a565b935050602084013567ffffffffffffffff811115613bc757613bc6613233565b5b613bd38682870161327d565b92509250509250925092565b6000608082019050613bf460008301876138c8565b613c016020830186613abf565b613c0e60408301856134de565b613c1b606083018461357d565b95945050505050565b613c2d81613a65565b82525050565b613c3c81613aad565b82525050565b600061010083016000830151613c5b600086018261395d565b506020830151613c6e6020860182613c24565b506040830151613c816040860182613783565b5060608301518482036060860152613c9982826137b2565b91505060808301518482036080860152613cb382826137b2565b91505060a0830151613cc860a0860182613806565b5060c0830151613cdb60c0860182613c33565b5060e0830151613cee60e08601826137f7565b508091505092915050565b60006020820190508181036000830152613d138184613c42565b905092915050565b600081519050919050565b600082825260208201905092915050565b6000819050602082019050919050565b600060e083016000830151613d5f600086018261395d565b506020830151613d726020860182613792565b506040830151613d856040860182613783565b5060608301518482036060860152613d9d82826137b2565b91505060808301518482036080860152613db782826137b2565b91505060a083015184820360a0860152613dd182826137b2565b91505060c0830151613de660c0860182613806565b508091505092915050565b6000613dfd8383613d47565b905092915050565b6000602082019050919050565b6000613e1d82613d1b565b613e278185613d26565b935083602082028501613e3985613d37565b8060005b85811015613e755784840389528151613e568582613df1565b9450613e6183613e05565b925060208a01995050600181019050613e3d565b50829750879550505050505092915050565b60006020820190508181036000830152613ea18184613e12565b905092915050565b7f4e6f7420617574686f72697a6564000000000000000000000000000000000000600082015250565b6000613edf600e836134f8565b9150613eea82613ea9565b602082019050919050565b60006020820190508181036000830152613f0e81613ed2565b9050919050565b7f426174636820646f6573206e6f74206578697374000000000000000000000000600082015250565b6000613f4b6014836134f8565b9150613f5682613f15565b602082019050919050565b60006020820190508181036000830152613f7a81613f3e565b9050919050565b7f496e76616c696420626174636820737461747573000000000000000000000000600082015250565b6000613fb76014836134f8565b9150613fc282613f81565b602082019050919050565b60006020820190508181036000830152613fe681613faa565b9050919050565b600082905092915050565b7f4e487b7100000000000000000000000000000000000000000000000000000000600052604160045260246000fd5b7f4e487b7100000000000000000000000000000000000000000000000000000000600052602260045260246000fd5b6000600282049050600182168061406e57607f821691505b60208210810361408157614080614027565b5b50919050565b60008190508160005260206000209050919050565b60006020601f8301049050919050565b600082821b905092915050565b6000600883026140e97fffffffffffffffffffffffffffffffffffffffffffffffffffffffffffffffff826140ac565b6140f386836140ac565b95508019841693508086168417925050509392505050565b6000819050919050565b600061413061412b61412684613368565b61410b565b613368565b9050919050565b6000819050919050565b61414a83614115565b61415e61415682614137565b8484546140b9565b825550505050565b600090565b614173614166565b61417e818484614141565b505050565b5b818110156141a25761419760008261416b565b600181019050614184565b5050565b601f8211156141e7576141b881614087565b6141c18461409c565b810160208510156141d0578190505b6141e46141dc8561409c565b830182614183565b50505b505050565b600082821c905092915050565b600061420a600019846008026141ec565b1980831691505092915050565b600061422383836141f9565b9150826002028217905092915050565b61423d8383613fed565b67ffffffffffffffff81111561425657614255613ff8565b5b6142608254614056565b61426b8282856141a6565b6000601f83116001811461429a5760008415614288578287013590505b6142928582614217565b8655506142fa565b601f1984166142a886614087565b60005b828110156142d0578489013582556001820191506020850194506020810190506142ab565b868310156142ed57848901356142e9601f8916826141f9565b8355505b6001600288020188555050505b50505050505050565b7f4e487b7100000000000000000000000000000000000000000000000000000000600052601160045260246000fd5b600061433d82613368565b91507fffffffffffffffffffffffffffffffffffffffffffffffffffffffffffffffff820361436f5761436e614303565b5b600182019050919050565b60008160601b9050919050565b60006143928261437a565b9050919050565b60006143a482614387565b9050919050565b6143bc6143b7826134cc565b614399565b82525050565b6000819050919050565b6143dd6143d882613368565b6143c2565b82525050565b60006143ef82866143ab565b6014820191506143ff82856143cc565b60208201915061440f82846143cc565b602082019150819050949350505050565b614429826134ed565b67ffffffffffffffff81111561444257614441613ff8565b5b61444c8254614056565b6144578282856141a6565b600060209050601f83116001811461448a5760008415614478578287015190505b6144828582614217565b8655506144ea565b601f19841661449886614087565b60005b828110156144c05784890151825560018201915060208501945060208101905061449b565b868310156144dd57848901516144d9601f8916826141f9565b8355505b6001600288020188555050505b505050505050565b60006020820190506145076000830184613a77565b92915050565b7f4261746368206e6f74206c616220766572696669656400000000000000000000600082015250565b60006145436016836134f8565b915061454e8261450d565b602082019050919050565b6000602082019050818103600083015261457281614536565b9050919050565b7f4261746368206e6f7420696e207472616e736974000000000000000000000000600082015250565b60006145af6014836134f8565b91506145ba82614579565b602082019050919050565b600060208201905081810360008301526145de816145a2565b9050919050565b7f4261746368206e6f7420696e2077617265686f75736500000000000000000000600082015250565b600061461b6016836134f8565b9150614626826145e5565b602082019050919050565b6000602082019050818103600083015261464a8161460e565b9050919050565b82818337600083830152505050565b600061466c83856134f8565b9350614679838584614651565b61468283613533565b840190509392505050565b600060208201905081810360008301526146a8818486614660565b90509392505050565b7f4e6f742063757272656e74206f776e6572000000000000000000000000000000600082015250565b60006146e76011836134f8565b91506146f2826146b1565b602082019050919050565b60006020820190508181036000830152614716816146da565b9050919050565b7f416c726561647920726567697374657265640000000000000000000000000000600082015250565b60006147536012836134f8565b915061475e8261471d565b602082019050919050565b6000602082019050818103600083015261478281614746565b9050919050565b7f4e616d6520726571756972656400000000000000000000000000000000000000600082015250565b60006147bf600d836134f8565b91506147ca82614789565b602082019050919050565b600060208201905081810360008301526147ee816147b2565b9050919050565b600060408201905061480a600083018661349d565b818103602083015261481d818486614660565b9050949350505050565b7f4261746368206e6f7420617070726f7665640000000000000000000000000000600082015250565b600061485d6012836134f8565b915061486882614827565b602082019050919050565b6000602082019050818103600083015261488c81614850565b905091905056fea2646970667358221220aea0ebad28b3b80c65b4a8c358a89932d78dfdcd6ac781304083a98f3d137fc364736f6c63430008130033",
  "linkReferences": {},
  "deployedLinkReferences": {}
}